{
  "_format": "hh-sol-artifact-1",
  "contractName": "NFT",
  "sourceName": "contracts/NFT.sol",
  "abi": [
    {
      "inputs": [
        {
          "internalType": "address payable",
          "name": "minter",
          "type": "address"
        }
      ],
      "stateMutability": "nonpayable",
      "type": "constructor"
    },
    {
      "anonymous": false,
      "inputs": [
        {
          "indexed": true,
          "internalType": "address",
          "name": "owner",
          "type": "address"
        },
        {
          "indexed": true,
          "internalType": "address",
          "name": "approved",
          "type": "address"
        },
        {
          "indexed": true,
          "internalType": "uint256",
          "name": "tokenId",
          "type": "uint256"
        }
      ],
      "name": "Approval",
      "type": "event"
    },
    {
      "anonymous": false,
      "inputs": [
        {
          "indexed": true,
          "internalType": "address",
          "name": "owner",
          "type": "address"
        },
        {
          "indexed": true,
          "internalType": "address",
          "name": "operator",
          "type": "address"
        },
        {
          "indexed": false,
          "internalType": "bool",
          "name": "approved",
          "type": "bool"
        }
      ],
      "name": "ApprovalForAll",
      "type": "event"
    },
    {
      "anonymous": false,
      "inputs": [
        {
          "indexed": true,
          "internalType": "bytes32",
          "name": "role",
          "type": "bytes32"
        },
        {
          "indexed": true,
          "internalType": "bytes32",
          "name": "previousAdminRole",
          "type": "bytes32"
        },
        {
          "indexed": true,
          "internalType": "bytes32",
          "name": "newAdminRole",
          "type": "bytes32"
        }
      ],
      "name": "RoleAdminChanged",
      "type": "event"
    },
    {
      "anonymous": false,
      "inputs": [
        {
          "indexed": true,
          "internalType": "bytes32",
          "name": "role",
          "type": "bytes32"
        },
        {
          "indexed": true,
          "internalType": "address",
          "name": "account",
          "type": "address"
        },
        {
          "indexed": true,
          "internalType": "address",
          "name": "sender",
          "type": "address"
        }
      ],
      "name": "RoleGranted",
      "type": "event"
    },
    {
      "anonymous": false,
      "inputs": [
        {
          "indexed": true,
          "internalType": "bytes32",
          "name": "role",
          "type": "bytes32"
        },
        {
          "indexed": true,
          "internalType": "address",
          "name": "account",
          "type": "address"
        },
        {
          "indexed": true,
          "internalType": "address",
          "name": "sender",
          "type": "address"
        }
      ],
      "name": "RoleRevoked",
      "type": "event"
    },
    {
      "anonymous": false,
      "inputs": [
        {
          "indexed": true,
          "internalType": "address",
          "name": "from",
          "type": "address"
        },
        {
          "indexed": true,
          "internalType": "address",
          "name": "to",
          "type": "address"
        },
        {
          "indexed": true,
          "internalType": "uint256",
          "name": "tokenId",
          "type": "uint256"
        }
      ],
      "name": "Transfer",
      "type": "event"
    },
    {
      "inputs": [],
      "name": "DEFAULT_ADMIN_ROLE",
      "outputs": [
        {
          "internalType": "bytes32",
          "name": "",
          "type": "bytes32"
        }
      ],
      "stateMutability": "view",
      "type": "function"
    },
    {
      "inputs": [],
      "name": "MINTER_ROLE",
      "outputs": [
        {
          "internalType": "bytes32",
          "name": "",
          "type": "bytes32"
        }
      ],
      "stateMutability": "view",
      "type": "function"
    },
    {
      "inputs": [
        {
          "internalType": "address",
          "name": "to",
          "type": "address"
        },
        {
          "internalType": "uint256",
          "name": "tokenId",
          "type": "uint256"
        }
      ],
      "name": "approve",
      "outputs": [],
      "stateMutability": "nonpayable",
      "type": "function"
    },
    {
      "inputs": [],
      "name": "availableToWithdraw",
      "outputs": [
        {
          "internalType": "uint256",
          "name": "",
          "type": "uint256"
        }
      ],
      "stateMutability": "view",
      "type": "function"
    },
    {
      "inputs": [
        {
          "internalType": "address",
          "name": "owner",
          "type": "address"
        }
      ],
      "name": "balanceOf",
      "outputs": [
        {
          "internalType": "uint256",
          "name": "",
          "type": "uint256"
        }
      ],
      "stateMutability": "view",
      "type": "function"
    },
    {
      "inputs": [
        {
          "internalType": "uint256",
          "name": "tokenId",
          "type": "uint256"
        }
      ],
      "name": "getApproved",
      "outputs": [
        {
          "internalType": "address",
          "name": "",
          "type": "address"
        }
      ],
      "stateMutability": "view",
      "type": "function"
    },
    {
      "inputs": [],
      "name": "getChainID",
      "outputs": [
        {
          "internalType": "uint256",
          "name": "",
          "type": "uint256"
        }
      ],
      "stateMutability": "view",
      "type": "function"
    },
    {
      "inputs": [
        {
          "internalType": "bytes32",
          "name": "role",
          "type": "bytes32"
        }
      ],
      "name": "getRoleAdmin",
      "outputs": [
        {
          "internalType": "bytes32",
          "name": "",
          "type": "bytes32"
        }
      ],
      "stateMutability": "view",
      "type": "function"
    },
    {
      "inputs": [
        {
          "internalType": "bytes32",
          "name": "role",
          "type": "bytes32"
        },
        {
          "internalType": "address",
          "name": "account",
          "type": "address"
        }
      ],
      "name": "grantRole",
      "outputs": [],
      "stateMutability": "nonpayable",
      "type": "function"
    },
    {
      "inputs": [
        {
          "internalType": "bytes32",
          "name": "role",
          "type": "bytes32"
        },
        {
          "internalType": "address",
          "name": "account",
          "type": "address"
        }
      ],
      "name": "hasRole",
      "outputs": [
        {
          "internalType": "bool",
          "name": "",
          "type": "bool"
        }
      ],
      "stateMutability": "view",
      "type": "function"
    },
    {
      "inputs": [
        {
          "internalType": "address",
          "name": "owner",
          "type": "address"
        },
        {
          "internalType": "address",
          "name": "operator",
          "type": "address"
        }
      ],
      "name": "isApprovedForAll",
      "outputs": [
        {
          "internalType": "bool",
          "name": "",
          "type": "bool"
        }
      ],
      "stateMutability": "view",
      "type": "function"
    },
    {
      "inputs": [],
      "name": "name",
      "outputs": [
        {
          "internalType": "string",
          "name": "",
          "type": "string"
        }
      ],
      "stateMutability": "view",
      "type": "function"
    },
    {
      "inputs": [
        {
          "internalType": "uint256",
          "name": "tokenId",
          "type": "uint256"
        }
      ],
      "name": "ownerOf",
      "outputs": [
        {
          "internalType": "address",
          "name": "",
          "type": "address"
        }
      ],
      "stateMutability": "view",
      "type": "function"
    },
    {
      "inputs": [
        {
          "internalType": "address",
          "name": "redeemer",
          "type": "address"
        },
        {
          "components": [
            {
              "internalType": "uint256",
              "name": "tokenId",
              "type": "uint256"
            },
            {
              "internalType": "uint256",
              "name": "minPrice",
              "type": "uint256"
            },
            {
              "internalType": "string",
              "name": "uri",
              "type": "string"
            },
            {
              "internalType": "bytes",
              "name": "signature",
              "type": "bytes"
            },
            {
              "internalType": "address",
              "name": "owner",
              "type": "address"
            },
            {
              "internalType": "address",
              "name": "creatorAddress",
              "type": "address"
            },
            {
              "internalType": "uint256",
              "name": "royalty",
              "type": "uint256"
            },
            {
              "internalType": "uint256",
              "name": "fee",
              "type": "uint256"
            }
          ],
          "internalType": "struct NFT.NFTVoucher",
          "name": "voucher",
          "type": "tuple"
        }
      ],
      "name": "redeem",
      "outputs": [
        {
          "internalType": "uint256",
          "name": "",
          "type": "uint256"
        }
      ],
      "stateMutability": "payable",
      "type": "function"
    },
    {
      "inputs": [
        {
          "internalType": "bytes32",
          "name": "role",
          "type": "bytes32"
        },
        {
          "internalType": "address",
          "name": "account",
          "type": "address"
        }
      ],
      "name": "renounceRole",
      "outputs": [],
      "stateMutability": "nonpayable",
      "type": "function"
    },
    {
      "inputs": [
        {
          "internalType": "bytes32",
          "name": "role",
          "type": "bytes32"
        },
        {
          "internalType": "address",
          "name": "account",
          "type": "address"
        }
      ],
      "name": "revokeRole",
      "outputs": [],
      "stateMutability": "nonpayable",
      "type": "function"
    },
    {
      "inputs": [
        {
          "internalType": "address",
          "name": "from",
          "type": "address"
        },
        {
          "internalType": "address",
          "name": "to",
          "type": "address"
        },
        {
          "internalType": "uint256",
          "name": "tokenId",
          "type": "uint256"
        }
      ],
      "name": "safeTransferFrom",
      "outputs": [],
      "stateMutability": "nonpayable",
      "type": "function"
    },
    {
      "inputs": [
        {
          "internalType": "address",
          "name": "from",
          "type": "address"
        },
        {
          "internalType": "address",
          "name": "to",
          "type": "address"
        },
        {
          "internalType": "uint256",
          "name": "tokenId",
          "type": "uint256"
        },
        {
          "internalType": "bytes",
          "name": "_data",
          "type": "bytes"
        }
      ],
      "name": "safeTransferFrom",
      "outputs": [],
      "stateMutability": "nonpayable",
      "type": "function"
    },
    {
      "inputs": [
        {
          "internalType": "address",
          "name": "operator",
          "type": "address"
        },
        {
          "internalType": "bool",
          "name": "approved",
          "type": "bool"
        }
      ],
      "name": "setApprovalForAll",
      "outputs": [],
      "stateMutability": "nonpayable",
      "type": "function"
    },
    {
      "inputs": [
        {
          "internalType": "bytes4",
          "name": "interfaceId",
          "type": "bytes4"
        }
      ],
      "name": "supportsInterface",
      "outputs": [
        {
          "internalType": "bool",
          "name": "",
          "type": "bool"
        }
      ],
      "stateMutability": "view",
      "type": "function"
    },
    {
      "inputs": [],
      "name": "symbol",
      "outputs": [
        {
          "internalType": "string",
          "name": "",
          "type": "string"
        }
      ],
      "stateMutability": "view",
      "type": "function"
    },
    {
      "inputs": [
        {
          "internalType": "uint256",
          "name": "tokenId",
          "type": "uint256"
        }
      ],
      "name": "tokenURI",
      "outputs": [
        {
          "internalType": "string",
          "name": "",
          "type": "string"
        }
      ],
      "stateMutability": "view",
      "type": "function"
    },
    {
      "inputs": [
        {
          "internalType": "address",
          "name": "from",
          "type": "address"
        },
        {
          "internalType": "address",
          "name": "to",
          "type": "address"
        },
        {
          "internalType": "uint256",
          "name": "tokenId",
          "type": "uint256"
        }
      ],
      "name": "transferFrom",
      "outputs": [],
      "stateMutability": "nonpayable",
      "type": "function"
    },
    {
      "inputs": [],
      "name": "withdraw",
      "outputs": [],
      "stateMutability": "nonpayable",
      "type": "function"
    }
  ],
  "bytecode": "0x6101206040523480156200001257600080fd5b5060405162002ab038038062002ab083398101604081905262000035916200030f565b6040518060400160405280601381526020017f4b727970746f426972647a2d566f756368657200000000000000000000000000815250604051806040016040528060018152602001603160f81b8152506040518060400160405280600b81526020016a25b93cb83a37a134b9323d60a91b8152506040518060400160405280600681526020016525a124a9222d60d11b8152508160009080519060200190620000e092919062000269565b508051620000f690600190602084019062000269565b5050825160209384012082519284019290922060c083815260e08290524660a0818152604080517f8b73c3c69bb8fe3d512ecc4cf759cc79239f7b179b0ffacaa9a75d522b39400f818a018190528183019890985260608101959095526080808601939093523085830152805180860390920182529390920190925280519401939093209092526101005250620001ae7f9f2df0fed2c77648de5860a4cc508cd0818c85b8b8a1ab4ceeef8d981c8956a682620001b5565b506200037c565b620001c18282620001c5565b5050565b60008281526007602090815260408083206001600160a01b038516845290915290205460ff16620001c15760008281526007602090815260408083206001600160a01b03851684529091529020805460ff19166001179055620002253390565b6001600160a01b0316816001600160a01b0316837f2f8788117e7eff1d82e926ec794901d17c78024a50270940304540a733656f0d60405160405180910390a45050565b82805462000277906200033f565b90600052602060002090601f0160209004810192826200029b5760008555620002e6565b82601f10620002b657805160ff1916838001178555620002e6565b82800160010185558215620002e6579182015b82811115620002e6578251825591602001919060010190620002c9565b50620002f4929150620002f8565b5090565b5b80821115620002f45760008155600101620002f9565b60006020828403121562000321578081fd5b81516001600160a01b038116811462000338578182fd5b9392505050565b600181811c908216806200035457607f821691505b602082108114156200037657634e487b7160e01b600052602260045260246000fd5b50919050565b60805160a05160c05160e051610100516126ef620003c16000396000611e3d01526000611e8c01526000611e6701526000611deb01526000611e1401526126ef6000f3fe60806040526004361061014b5760003560e01c806370a08231116100b6578063c87b56dd1161006f578063c87b56dd146103b1578063d5391393146103d1578063d547741f14610405578063e322ad2b14610425578063e985e9c514610447578063f7fc5ce41461049057600080fd5b806370a082311461030757806391d148541461032757806395d89b4114610347578063a217fddf1461035c578063a22cb46514610371578063b88d4fde1461039157600080fd5b80632f2ff15d116101085780632f2ff15d1461025f57806336568abe1461027f5780633ccfd60b1461029f57806342842e0e146102b4578063564b81ef146102d45780636352211e146102e757600080fd5b806301ffc9a71461015057806306fdde0314610185578063081812fc146101a7578063095ea7b3146101df57806323b872dd14610201578063248a9ca314610221575b600080fd5b34801561015c57600080fd5b5061017061016b3660046122ec565b6104a3565b60405190151581526020015b60405180910390f35b34801561019157600080fd5b5061019a6104c3565b60405161017c9190612441565b3480156101b357600080fd5b506101c76101c23660046122b2565b610555565b6040516001600160a01b03909116815260200161017c565b3480156101eb57600080fd5b506101ff6101fa366004612289565b6105e2565b005b34801561020d57600080fd5b506101ff61021c3660046120f7565b6106f8565b34801561022d57600080fd5b5061025161023c3660046122b2565b60009081526007602052604090206001015490565b60405190815260200161017c565b34801561026b57600080fd5b506101ff61027a3660046122ca565b610729565b34801561028b57600080fd5b506101ff61029a3660046122ca565b61074f565b3480156102ab57600080fd5b506101ff6107cd565b3480156102c057600080fd5b506101ff6102cf3660046120f7565b610892565b3480156102e057600080fd5b5046610251565b3480156102f357600080fd5b506101c76103023660046122b2565b6108ad565b34801561031357600080fd5b506102516103223660046120ab565b610924565b34801561033357600080fd5b506101706103423660046122ca565b6109ab565b34801561035357600080fd5b5061019a6109d6565b34801561036857600080fd5b50610251600081565b34801561037d57600080fd5b506101ff61038c366004612207565b6109e5565b34801561039d57600080fd5b506101ff6103ac366004612132565b610aaa565b3480156103bd57600080fd5b5061019a6103cc3660046122b2565b610ae2565b3480156103dd57600080fd5b506102517f9f2df0fed2c77648de5860a4cc508cd0818c85b8b8a1ab4ceeef8d981c8956a681565b34801561041157600080fd5b506101ff6104203660046122ca565b610c59565b34801561043157600080fd5b5033600090815260086020526040902054610251565b34801561045357600080fd5b506101706104623660046120c5565b6001600160a01b03918216600090815260056020908152604080832093909416825291909152205460ff1690565b61025161049e366004612241565b610c7f565b60006104ae82610e21565b806104bd57506104bd82610e71565b92915050565b6060600080546104d2906125f7565b80601f01602080910402602001604051908101604052809291908181526020018280546104fe906125f7565b801561054b5780601f106105205761010080835404028352916020019161054b565b820191906000526020600020905b81548152906001019060200180831161052e57829003601f168201915b5050505050905090565b600061056082610e96565b6105c65760405162461bcd60e51b815260206004820152602c60248201527f4552433732313a20617070726f76656420717565727920666f72206e6f6e657860448201526b34b9ba32b73a103a37b5b2b760a11b60648201526084015b60405180910390fd5b506000908152600460205260409020546001600160a01b031690565b60006105ed826108ad565b9050806001600160a01b0316836001600160a01b0316141561065b5760405162461bcd60e51b815260206004820152602160248201527f4552433732313a20617070726f76616c20746f2063757272656e74206f776e656044820152603960f91b60648201526084016105bd565b336001600160a01b038216148061067757506106778133610462565b6106e95760405162461bcd60e51b815260206004820152603860248201527f4552433732313a20617070726f76652063616c6c6572206973206e6f74206f7760448201527f6e6572206e6f7220617070726f76656420666f7220616c6c000000000000000060648201526084016105bd565b6106f38383610eb3565b505050565b6107023382610f21565b61071e5760405162461bcd60e51b81526004016105bd906124a6565b6106f3838383611007565b60008281526007602052604090206001015461074581336111a7565b6106f3838361120b565b6001600160a01b03811633146107bf5760405162461bcd60e51b815260206004820152602f60248201527f416363657373436f6e74726f6c3a2063616e206f6e6c792072656e6f756e636560448201526e103937b632b9903337b91039b2b63360891b60648201526084016105bd565b6107c98282611291565b5050565b6107f77f9f2df0fed2c77648de5860a4cc508cd0818c85b8b8a1ab4ceeef8d981c8956a6336109ab565b61084f5760405162461bcd60e51b8152602060048201526024808201527f4f6e6c7920617574686f72697a6564206d696e746572732063616e20776974686044820152636472617760e01b60648201526084016105bd565b3360008181526008602052604080822080549083905590519091839183156108fc0291849190818181858888f193505050501580156106f3573d6000803e3d6000fd5b6106f383838360405180602001604052806000815250610aaa565b6000818152600260205260408120546001600160a01b0316806104bd5760405162461bcd60e51b815260206004820152602960248201527f4552433732313a206f776e657220717565727920666f72206e6f6e657869737460448201526832b73a103a37b5b2b760b91b60648201526084016105bd565b60006001600160a01b03821661098f5760405162461bcd60e51b815260206004820152602a60248201527f4552433732313a2062616c616e636520717565727920666f7220746865207a65604482015269726f206164647265737360b01b60648201526084016105bd565b506001600160a01b031660009081526003602052604090205490565b60009182526007602090815260408084206001600160a01b0393909316845291905290205460ff1690565b6060600180546104d2906125f7565b6001600160a01b038216331415610a3e5760405162461bcd60e51b815260206004820152601960248201527f4552433732313a20617070726f766520746f2063616c6c65720000000000000060448201526064016105bd565b3360008181526005602090815260408083206001600160a01b03871680855290835292819020805460ff191686151590811790915590519081529192917f17307eab39ab6107e8899845ad3d59bd9653f200f220920489ca2b5937696c31910160405180910390a35050565b610ab43383610f21565b610ad05760405162461bcd60e51b81526004016105bd906124a6565b610adc848484846112f8565b50505050565b6060610aed82610e96565b610b535760405162461bcd60e51b815260206004820152603160248201527f45524337323155524953746f726167653a2055524920717565727920666f72206044820152703737b732bc34b9ba32b73a103a37b5b2b760791b60648201526084016105bd565b60008281526006602052604081208054610b6c906125f7565b80601f0160208091040260200160405190810160405280929190818152602001828054610b98906125f7565b8015610be55780601f10610bba57610100808354040283529160200191610be5565b820191906000526020600020905b815481529060010190602001808311610bc857829003601f168201915b505050505090506000610c0360408051602081019091526000815290565b9050805160001415610c16575092915050565b815115610c48578082604051602001610c30929190612360565b60405160208183030381529060405292505050919050565b610c518461132b565b949350505050565b600082815260076020526040902060010154610c7581336111a7565b6106f38383611291565b600080610c8b83611403565b90508260200135341015610ce15760405162461bcd60e51b815260206004820152601c60248201527f496e73756666696369656e742066756e647320746f2072656465656d0000000060448201526064016105bd565b6000610cf360a08501608086016120ab565b90506001600160a01b0381166108fc6064610d1260c08801358261259d565b610d1c903461257e565b610d26919061256a565b6040518115909202916000818181858888f19350505050158015610d4e573d6000803e3d6000fd5b506000610d6160c0860160a087016120ab565b90506001600160a01b0381166108fc6064610d8060c08901353461257e565b610d8a919061256a565b6040518115909202916000818181858888f19350505050158015610db2573d6000803e3d6000fd5b50610dbe83863561145c565b610e0a8535610dd0604088018861253c565b8080601f01602080910402602001604051908101604052809392919081815260200183838082843760009201919091525061158f92505050565b610e1683878735611007565b505091359392505050565b60006001600160e01b031982166380ac58cd60e01b1480610e5257506001600160e01b03198216635b5e139f60e01b145b806104bd57506301ffc9a760e01b6001600160e01b03198316146104bd565b60006001600160e01b03198216637965db0b60e01b14806104bd57506104bd82610e21565b6000908152600260205260409020546001600160a01b0316151590565b600081815260046020526040902080546001600160a01b0319166001600160a01b0384169081179091558190610ee8826108ad565b6001600160a01b03167f8c5be1e5ebec7d5bd14f71427d1e84f3dd0314c0f7b2291e5b200ac8c7c3b92560405160405180910390a45050565b6000610f2c82610e96565b610f8d5760405162461bcd60e51b815260206004820152602c60248201527f4552433732313a206f70657261746f7220717565727920666f72206e6f6e657860448201526b34b9ba32b73a103a37b5b2b760a11b60648201526084016105bd565b6000610f98836108ad565b9050806001600160a01b0316846001600160a01b03161480610fd35750836001600160a01b0316610fc884610555565b6001600160a01b0316145b80610c5157506001600160a01b0380821660009081526005602090815260408083209388168352929052205460ff16610c51565b826001600160a01b031661101a826108ad565b6001600160a01b0316146110825760405162461bcd60e51b815260206004820152602960248201527f4552433732313a207472616e73666572206f6620746f6b656e2074686174206960448201526839903737ba1037bbb760b91b60648201526084016105bd565b6001600160a01b0382166110e45760405162461bcd60e51b8152602060048201526024808201527f4552433732313a207472616e7366657220746f20746865207a65726f206164646044820152637265737360e01b60648201526084016105bd565b6110ef600082610eb3565b6001600160a01b038316600090815260036020526040812080546001929061111890849061259d565b90915550506001600160a01b0382166000908152600360205260408120805460019290611146908490612552565b909155505060008181526002602052604080822080546001600160a01b0319166001600160a01b0386811691821790925591518493918716917fddf252ad1be2c89b69c2b068fc378daa952ba7f163c4a11628f55a4df523b3ef91a4505050565b6111b182826109ab565b6107c9576111c9816001600160a01b0316601461161a565b6111d483602061161a565b6040516020016111e592919061238f565b60408051601f198184030181529082905262461bcd60e51b82526105bd91600401612441565b61121582826109ab565b6107c95760008281526007602090815260408083206001600160a01b03851684529091529020805460ff1916600117905561124d3390565b6001600160a01b0316816001600160a01b0316837f2f8788117e7eff1d82e926ec794901d17c78024a50270940304540a733656f0d60405160405180910390a45050565b61129b82826109ab565b156107c95760008281526007602090815260408083206001600160a01b0385168085529252808320805460ff1916905551339285917ff6391f5c32d9c69d2a47ea670b442974b53935d1edc7fd64eb21e047a839171b9190a45050565b611303848484611007565b61130f848484846117fc565b610adc5760405162461bcd60e51b81526004016105bd90612454565b606061133682610e96565b61139a5760405162461bcd60e51b815260206004820152602f60248201527f4552433732314d657461646174613a2055524920717565727920666f72206e6f60448201526e3732bc34b9ba32b73a103a37b5b2b760891b60648201526084016105bd565b60006113b160408051602081019091526000815290565b905060008151116113d157604051806020016040528060008152506113fc565b806113db84611909565b6040516020016113ec929190612360565b6040516020818303038152906040525b9392505050565b60008061140f83611a23565b90506113fc8161142260608601866124f7565b8080601f016020809104026020016040519081016040528093929190818152602001838380828437600092019190915250611b0192505050565b6001600160a01b0382166114b25760405162461bcd60e51b815260206004820181905260248201527f4552433732313a206d696e7420746f20746865207a65726f206164647265737360448201526064016105bd565b6114bb81610e96565b156115085760405162461bcd60e51b815260206004820152601c60248201527f4552433732313a20746f6b656e20616c7265616479206d696e7465640000000060448201526064016105bd565b6001600160a01b0382166000908152600360205260408120805460019290611531908490612552565b909155505060008181526002602052604080822080546001600160a01b0319166001600160a01b03861690811790915590518392907fddf252ad1be2c89b69c2b068fc378daa952ba7f163c4a11628f55a4df523b3ef908290a45050565b61159882610e96565b6115fb5760405162461bcd60e51b815260206004820152602e60248201527f45524337323155524953746f726167653a2055524920736574206f66206e6f6e60448201526d32bc34b9ba32b73a103a37b5b2b760911b60648201526084016105bd565b600082815260066020908152604090912082516106f392840190611ff6565b6060600061162983600261257e565b611634906002612552565b67ffffffffffffffff81111561165a57634e487b7160e01b600052604160045260246000fd5b6040519080825280601f01601f191660200182016040528015611684576020820181803683370190505b509050600360fc1b816000815181106116ad57634e487b7160e01b600052603260045260246000fd5b60200101906001600160f81b031916908160001a905350600f60fb1b816001815181106116ea57634e487b7160e01b600052603260045260246000fd5b60200101906001600160f81b031916908160001a905350600061170e84600261257e565b611719906001612552565b90505b60018111156117ad576f181899199a1a9b1b9c1cb0b131b232b360811b85600f166010811061175b57634e487b7160e01b600052603260045260246000fd5b1a60f81b82828151811061177f57634e487b7160e01b600052603260045260246000fd5b60200101906001600160f81b031916908160001a90535060049490941c936117a6816125e0565b905061171c565b5083156113fc5760405162461bcd60e51b815260206004820181905260248201527f537472696e67733a20686578206c656e67746820696e73756666696369656e7460448201526064016105bd565b60006001600160a01b0384163b156118fe57604051630a85bd0160e11b81526001600160a01b0385169063150b7a0290611840903390899088908890600401612404565b602060405180830381600087803b15801561185a57600080fd5b505af192505050801561188a575060408051601f3d908101601f1916820190925261188791810190612308565b60015b6118e4573d8080156118b8576040519150601f19603f3d011682016040523d82523d6000602084013e6118bd565b606091505b5080516118dc5760405162461bcd60e51b81526004016105bd90612454565b805181602001fd5b6001600160e01b031916630a85bd0160e11b149050610c51565b506001949350505050565b60608161192d5750506040805180820190915260018152600360fc1b602082015290565b8160005b8115611957578061194181612632565b91506119509050600a8361256a565b9150611931565b60008167ffffffffffffffff81111561198057634e487b7160e01b600052604160045260246000fd5b6040519080825280601f01601f1916602001820160405280156119aa576020820181803683370190505b5090505b8415610c51576119bf60018361259d565b91506119cc600a8661264d565b6119d7906030612552565b60f81b8183815181106119fa57634e487b7160e01b600052603260045260246000fd5b60200101906001600160f81b031916908160001a905350611a1c600a8661256a565b94506119ae565b60006104bd7f31e9b5d48afe00845bc5c9448ce57ed15fc402262b4a8cd196ccf0a40cfd3ac883356020850135611a5d604087018761253c565b604051611a6b929190612350565b604051908190039020611a8460a08801608089016120ab565b611a9460c0890160a08a016120ab565b604080516020810197909752860194909452606085019290925260808401526001600160a01b0390811660a08401521660c08281019190915284013560e0828101919091528401356101008201526101200160405160208183030381529060405280519060200120611b25565b6000806000611b108585611b73565b91509150611b1d81611be3565b509392505050565b60006104bd611b32611de7565b8360405161190160f01b6020820152602281018390526042810182905260009060620160405160208183030381529060405280519060200120905092915050565b600080825160411415611baa5760208301516040840151606085015160001a611b9e87828585611eda565b94509450505050611bdc565b825160401415611bd45760208301516040840151611bc9868383611fc7565b935093505050611bdc565b506000905060025b9250929050565b6000816004811115611c0557634e487b7160e01b600052602160045260246000fd5b1415611c0e5750565b6001816004811115611c3057634e487b7160e01b600052602160045260246000fd5b1415611c7e5760405162461bcd60e51b815260206004820152601860248201527f45434453413a20696e76616c6964207369676e6174757265000000000000000060448201526064016105bd565b6002816004811115611ca057634e487b7160e01b600052602160045260246000fd5b1415611cee5760405162461bcd60e51b815260206004820152601f60248201527f45434453413a20696e76616c6964207369676e6174757265206c656e6774680060448201526064016105bd565b6003816004811115611d1057634e487b7160e01b600052602160045260246000fd5b1415611d695760405162461bcd60e51b815260206004820152602260248201527f45434453413a20696e76616c6964207369676e6174757265202773272076616c604482015261756560f01b60648201526084016105bd565b6004816004811115611d8b57634e487b7160e01b600052602160045260246000fd5b1415611de45760405162461bcd60e51b815260206004820152602260248201527f45434453413a20696e76616c6964207369676e6174757265202776272076616c604482015261756560f01b60648201526084016105bd565b50565b60007f0000000000000000000000000000000000000000000000000000000000000000461415611e3657507f000000000000000000000000000000000000000000000000000000000000000090565b50604080517f00000000000000000000000000000000000000000000000000000000000000006020808301919091527f0000000000000000000000000000000000000000000000000000000000000000828401527f000000000000000000000000000000000000000000000000000000000000000060608301524660808301523060a0808401919091528351808403909101815260c0909201909252805191012090565b6000807f7fffffffffffffffffffffffffffffff5d576e7357a4501ddfe92f46681b20a0831115611f115750600090506003611fbe565b8460ff16601b14158015611f2957508460ff16601c14155b15611f3a5750600090506004611fbe565b6040805160008082526020820180845289905260ff881692820192909252606081018690526080810185905260019060a0016020604051602081039080840390855afa158015611f8e573d6000803e3d6000fd5b5050604051601f1901519150506001600160a01b038116611fb757600060019250925050611fbe565b9150600090505b94509492505050565b6000806001600160ff1b03831660ff84901c601b01611fe887828885611eda565b935093505050935093915050565b828054612002906125f7565b90600052602060002090601f016020900481019282612024576000855561206a565b82601f1061203d57805160ff191683800117855561206a565b8280016001018555821561206a579182015b8281111561206a57825182559160200191906001019061204f565b5061207692915061207a565b5090565b5b80821115612076576000815560010161207b565b80356001600160a01b03811681146120a657600080fd5b919050565b6000602082840312156120bc578081fd5b6113fc8261208f565b600080604083850312156120d7578081fd5b6120e08361208f565b91506120ee6020840161208f565b90509250929050565b60008060006060848603121561210b578081fd5b6121148461208f565b92506121226020850161208f565b9150604084013590509250925092565b60008060008060808587031215612147578081fd5b6121508561208f565b935061215e6020860161208f565b925060408501359150606085013567ffffffffffffffff80821115612181578283fd5b818701915087601f830112612194578283fd5b8135818111156121a6576121a661268d565b604051601f8201601f19908116603f011681019083821181831017156121ce576121ce61268d565b816040528281528a60208487010111156121e6578586fd5b82602086016020830137918201602001949094529598949750929550505050565b60008060408385031215612219578182fd5b6122228361208f565b915060208301358015158114612236578182fd5b809150509250929050565b60008060408385031215612253578182fd5b61225c8361208f565b9150602083013567ffffffffffffffff811115612277578182fd5b83016101008186031215612236578182fd5b6000806040838503121561229b578182fd5b6122a48361208f565b946020939093013593505050565b6000602082840312156122c3578081fd5b5035919050565b600080604083850312156122dc578182fd5b823591506120ee6020840161208f565b6000602082840312156122fd578081fd5b81356113fc816126a3565b600060208284031215612319578081fd5b81516113fc816126a3565b6000815180845261233c8160208601602086016125b4565b601f01601f19169290920160200192915050565b8183823760009101908152919050565b600083516123728184602088016125b4565b8351908301906123868183602088016125b4565b01949350505050565b7f416363657373436f6e74726f6c3a206163636f756e74200000000000000000008152600083516123c78160178501602088016125b4565b7001034b99036b4b9b9b4b733903937b6329607d1b60179184019182015283516123f88160288401602088016125b4565b01602801949350505050565b6001600160a01b038581168252841660208201526040810183905260806060820181905260009061243790830184612324565b9695505050505050565b6020815260006113fc6020830184612324565b60208082526032908201527f4552433732313a207472616e7366657220746f206e6f6e20455243373231526560408201527131b2b4bb32b91034b6b83632b6b2b73a32b960711b606082015260800190565b60208082526031908201527f4552433732313a207472616e736665722063616c6c6572206973206e6f74206f6040820152701ddb995c881b9bdc88185c1c1c9bdd9959607a1b606082015260800190565b6000808335601e1984360301811261250d578283fd5b83018035915067ffffffffffffffff821115612527578283fd5b602001915036819003821315611bdc57600080fd5b6000808335601e1984360301811261250d578182fd5b6000821982111561256557612565612661565b500190565b60008261257957612579612677565b500490565b600081600019048311821515161561259857612598612661565b500290565b6000828210156125af576125af612661565b500390565b60005b838110156125cf5781810151838201526020016125b7565b83811115610adc5750506000910152565b6000816125ef576125ef612661565b506000190190565b600181811c9082168061260b57607f821691505b6020821081141561262c57634e487b7160e01b600052602260045260246000fd5b50919050565b600060001982141561264657612646612661565b5060010190565b60008261265c5761265c612677565b500690565b634e487b7160e01b600052601160045260246000fd5b634e487b7160e01b600052601260045260246000fd5b634e487b7160e01b600052604160045260246000fd5b6001600160e01b031981168114611de457600080fdfea2646970667358221220782fde8a2a80f5fb669e9eda8f7e4e81d61a9bd0dad5f06d59de8e11649ec9f064736f6c63430008040033",
  "linkReferences": {},
  "deployedLinkReferences": {}
}