{
  "_format": "hh-sol-artifact-1",
  "contractName": "NFT",
  "sourceName": "contracts/NFT.sol",
  "abi": [
    {
      "inputs": [
        {
          "internalType": "address payable",
          "name": "minter",
          "type": "address"
        }
      ],
      "stateMutability": "nonpayable",
      "type": "constructor"
    },
    {
      "anonymous": false,
      "inputs": [
        {
          "indexed": true,
          "internalType": "address",
          "name": "owner",
          "type": "address"
        },
        {
          "indexed": true,
          "internalType": "address",
          "name": "approved",
          "type": "address"
        },
        {
          "indexed": true,
          "internalType": "uint256",
          "name": "tokenId",
          "type": "uint256"
        }
      ],
      "name": "Approval",
      "type": "event"
    },
    {
      "anonymous": false,
      "inputs": [
        {
          "indexed": true,
          "internalType": "address",
          "name": "owner",
          "type": "address"
        },
        {
          "indexed": true,
          "internalType": "address",
          "name": "operator",
          "type": "address"
        },
        {
          "indexed": false,
          "internalType": "bool",
          "name": "approved",
          "type": "bool"
        }
      ],
      "name": "ApprovalForAll",
      "type": "event"
    },
    {
      "anonymous": false,
      "inputs": [
        {
          "indexed": true,
          "internalType": "bytes32",
          "name": "role",
          "type": "bytes32"
        },
        {
          "indexed": true,
          "internalType": "bytes32",
          "name": "previousAdminRole",
          "type": "bytes32"
        },
        {
          "indexed": true,
          "internalType": "bytes32",
          "name": "newAdminRole",
          "type": "bytes32"
        }
      ],
      "name": "RoleAdminChanged",
      "type": "event"
    },
    {
      "anonymous": false,
      "inputs": [
        {
          "indexed": true,
          "internalType": "bytes32",
          "name": "role",
          "type": "bytes32"
        },
        {
          "indexed": true,
          "internalType": "address",
          "name": "account",
          "type": "address"
        },
        {
          "indexed": true,
          "internalType": "address",
          "name": "sender",
          "type": "address"
        }
      ],
      "name": "RoleGranted",
      "type": "event"
    },
    {
      "anonymous": false,
      "inputs": [
        {
          "indexed": true,
          "internalType": "bytes32",
          "name": "role",
          "type": "bytes32"
        },
        {
          "indexed": true,
          "internalType": "address",
          "name": "account",
          "type": "address"
        },
        {
          "indexed": true,
          "internalType": "address",
          "name": "sender",
          "type": "address"
        }
      ],
      "name": "RoleRevoked",
      "type": "event"
    },
    {
      "anonymous": false,
      "inputs": [
        {
          "indexed": true,
          "internalType": "address",
          "name": "from",
          "type": "address"
        },
        {
          "indexed": true,
          "internalType": "address",
          "name": "to",
          "type": "address"
        },
        {
          "indexed": true,
          "internalType": "uint256",
          "name": "tokenId",
          "type": "uint256"
        }
      ],
      "name": "Transfer",
      "type": "event"
    },
    {
      "inputs": [],
      "name": "DEFAULT_ADMIN_ROLE",
      "outputs": [
        {
          "internalType": "bytes32",
          "name": "",
          "type": "bytes32"
        }
      ],
      "stateMutability": "view",
      "type": "function"
    },
    {
      "inputs": [],
      "name": "MINTER_ROLE",
      "outputs": [
        {
          "internalType": "bytes32",
          "name": "",
          "type": "bytes32"
        }
      ],
      "stateMutability": "view",
      "type": "function"
    },
    {
      "inputs": [
        {
          "internalType": "address",
          "name": "to",
          "type": "address"
        },
        {
          "internalType": "uint256",
          "name": "tokenId",
          "type": "uint256"
        }
      ],
      "name": "approve",
      "outputs": [],
      "stateMutability": "nonpayable",
      "type": "function"
    },
    {
      "inputs": [],
      "name": "availableToWithdraw",
      "outputs": [
        {
          "internalType": "uint256",
          "name": "",
          "type": "uint256"
        }
      ],
      "stateMutability": "view",
      "type": "function"
    },
    {
      "inputs": [
        {
          "internalType": "address",
          "name": "owner",
          "type": "address"
        }
      ],
      "name": "balanceOf",
      "outputs": [
        {
          "internalType": "uint256",
          "name": "",
          "type": "uint256"
        }
      ],
      "stateMutability": "view",
      "type": "function"
    },
    {
      "inputs": [
        {
          "internalType": "uint256",
          "name": "tokenId",
          "type": "uint256"
        }
      ],
      "name": "getApproved",
      "outputs": [
        {
          "internalType": "address",
          "name": "",
          "type": "address"
        }
      ],
      "stateMutability": "view",
      "type": "function"
    },
    {
      "inputs": [],
      "name": "getChainID",
      "outputs": [
        {
          "internalType": "uint256",
          "name": "",
          "type": "uint256"
        }
      ],
      "stateMutability": "view",
      "type": "function"
    },
    {
      "inputs": [
        {
          "internalType": "bytes32",
          "name": "role",
          "type": "bytes32"
        }
      ],
      "name": "getRoleAdmin",
      "outputs": [
        {
          "internalType": "bytes32",
          "name": "",
          "type": "bytes32"
        }
      ],
      "stateMutability": "view",
      "type": "function"
    },
    {
      "inputs": [
        {
          "internalType": "bytes32",
          "name": "role",
          "type": "bytes32"
        },
        {
          "internalType": "address",
          "name": "account",
          "type": "address"
        }
      ],
      "name": "grantRole",
      "outputs": [],
      "stateMutability": "nonpayable",
      "type": "function"
    },
    {
      "inputs": [
        {
          "internalType": "bytes32",
          "name": "role",
          "type": "bytes32"
        },
        {
          "internalType": "address",
          "name": "account",
          "type": "address"
        }
      ],
      "name": "hasRole",
      "outputs": [
        {
          "internalType": "bool",
          "name": "",
          "type": "bool"
        }
      ],
      "stateMutability": "view",
      "type": "function"
    },
    {
      "inputs": [
        {
          "internalType": "address",
          "name": "owner",
          "type": "address"
        },
        {
          "internalType": "address",
          "name": "operator",
          "type": "address"
        }
      ],
      "name": "isApprovedForAll",
      "outputs": [
        {
          "internalType": "bool",
          "name": "",
          "type": "bool"
        }
      ],
      "stateMutability": "view",
      "type": "function"
    },
    {
      "inputs": [],
      "name": "name",
      "outputs": [
        {
          "internalType": "string",
          "name": "",
          "type": "string"
        }
      ],
      "stateMutability": "view",
      "type": "function"
    },
    {
      "inputs": [
        {
          "internalType": "uint256",
          "name": "tokenId",
          "type": "uint256"
        }
      ],
      "name": "ownerOf",
      "outputs": [
        {
          "internalType": "address",
          "name": "",
          "type": "address"
        }
      ],
      "stateMutability": "view",
      "type": "function"
    },
    {
      "inputs": [
        {
          "internalType": "address",
          "name": "redeemer",
          "type": "address"
        },
        {
          "components": [
            {
              "internalType": "uint256",
              "name": "tokenId",
              "type": "uint256"
            },
            {
              "internalType": "uint256",
              "name": "minPrice",
              "type": "uint256"
            },
            {
              "internalType": "string",
              "name": "uri",
              "type": "string"
            },
            {
              "internalType": "bytes",
              "name": "signature",
              "type": "bytes"
            },
            {
              "internalType": "address",
              "name": "owner",
              "type": "address"
            },
            {
              "internalType": "address",
              "name": "creatorAddress",
              "type": "address"
            },
            {
              "internalType": "uint256",
              "name": "royalty",
              "type": "uint256"
            },
            {
              "internalType": "uint256",
              "name": "fee",
              "type": "uint256"
            }
          ],
          "internalType": "struct NFT.NFTVoucher",
          "name": "voucher",
          "type": "tuple"
        }
      ],
      "name": "redeem",
      "outputs": [
        {
          "internalType": "uint256",
          "name": "",
          "type": "uint256"
        }
      ],
      "stateMutability": "payable",
      "type": "function"
    },
    {
      "inputs": [
        {
          "internalType": "bytes32",
          "name": "role",
          "type": "bytes32"
        },
        {
          "internalType": "address",
          "name": "account",
          "type": "address"
        }
      ],
      "name": "renounceRole",
      "outputs": [],
      "stateMutability": "nonpayable",
      "type": "function"
    },
    {
      "inputs": [
        {
          "internalType": "bytes32",
          "name": "role",
          "type": "bytes32"
        },
        {
          "internalType": "address",
          "name": "account",
          "type": "address"
        }
      ],
      "name": "revokeRole",
      "outputs": [],
      "stateMutability": "nonpayable",
      "type": "function"
    },
    {
      "inputs": [
        {
          "internalType": "address",
          "name": "from",
          "type": "address"
        },
        {
          "internalType": "address",
          "name": "to",
          "type": "address"
        },
        {
          "internalType": "uint256",
          "name": "tokenId",
          "type": "uint256"
        }
      ],
      "name": "safeTransferFrom",
      "outputs": [],
      "stateMutability": "nonpayable",
      "type": "function"
    },
    {
      "inputs": [
        {
          "internalType": "address",
          "name": "from",
          "type": "address"
        },
        {
          "internalType": "address",
          "name": "to",
          "type": "address"
        },
        {
          "internalType": "uint256",
          "name": "tokenId",
          "type": "uint256"
        },
        {
          "internalType": "bytes",
          "name": "_data",
          "type": "bytes"
        }
      ],
      "name": "safeTransferFrom",
      "outputs": [],
      "stateMutability": "nonpayable",
      "type": "function"
    },
    {
      "inputs": [
        {
          "internalType": "address",
          "name": "operator",
          "type": "address"
        },
        {
          "internalType": "bool",
          "name": "approved",
          "type": "bool"
        }
      ],
      "name": "setApprovalForAll",
      "outputs": [],
      "stateMutability": "nonpayable",
      "type": "function"
    },
    {
      "inputs": [
        {
          "internalType": "bytes4",
          "name": "interfaceId",
          "type": "bytes4"
        }
      ],
      "name": "supportsInterface",
      "outputs": [
        {
          "internalType": "bool",
          "name": "",
          "type": "bool"
        }
      ],
      "stateMutability": "view",
      "type": "function"
    },
    {
      "inputs": [],
      "name": "symbol",
      "outputs": [
        {
          "internalType": "string",
          "name": "",
          "type": "string"
        }
      ],
      "stateMutability": "view",
      "type": "function"
    },
    {
      "inputs": [
        {
          "internalType": "uint256",
          "name": "tokenId",
          "type": "uint256"
        }
      ],
      "name": "tokenURI",
      "outputs": [
        {
          "internalType": "string",
          "name": "",
          "type": "string"
        }
      ],
      "stateMutability": "view",
      "type": "function"
    },
    {
      "inputs": [
        {
          "internalType": "address",
          "name": "from",
          "type": "address"
        },
        {
          "internalType": "address",
          "name": "to",
          "type": "address"
        },
        {
          "internalType": "uint256",
          "name": "tokenId",
          "type": "uint256"
        }
      ],
      "name": "transferFrom",
      "outputs": [],
      "stateMutability": "nonpayable",
      "type": "function"
    },
    {
      "inputs": [],
      "name": "withdraw",
      "outputs": [],
      "stateMutability": "nonpayable",
      "type": "function"
    }
  ],
  "bytecode": "0x6101406040523480156200001257600080fd5b5060405162002b1538038062002b1583398101604081905262000035916200031d565b6040518060400160405280601381526020017f4b727970746f426972647a2d566f756368657200000000000000000000000000815250604051806040016040528060018152602001603160f81b8152506040518060400160405280600b81526020016a25b93cb83a37a134b9323d60a91b8152506040518060400160405280600681526020016525a124a9222d60d11b8152508160009080519060200190620000e092919062000277565b508051620000f690600190602084019062000277565b5050825160208085019190912083518483012060e08290526101008190524660a0818152604080517f8b73c3c69bb8fe3d512ecc4cf759cc79239f7b179b0ffacaa9a75d522b39400f81880181905281830187905260608201869052608082019490945230818401528151808203909301835260c0019052805194019390932091935091906080523060601b60c0526101205250620001bc92507f9f2df0fed2c77648de5860a4cc508cd0818c85b8b8a1ab4ceeef8d981c8956a69150839050620001c3565b506200038a565b620001cf8282620001d3565b5050565b60008281526007602090815260408083206001600160a01b038516845290915290205460ff16620001cf5760008281526007602090815260408083206001600160a01b03851684529091529020805460ff19166001179055620002333390565b6001600160a01b0316816001600160a01b0316837f2f8788117e7eff1d82e926ec794901d17c78024a50270940304540a733656f0d60405160405180910390a45050565b82805462000285906200034d565b90600052602060002090601f016020900481019282620002a95760008555620002f4565b82601f10620002c457805160ff1916838001178555620002f4565b82800160010185558215620002f4579182015b82811115620002f4578251825591602001919060010190620002d7565b506200030292915062000306565b5090565b5b8082111562000302576000815560010162000307565b6000602082840312156200032f578081fd5b81516001600160a01b038116811462000346578182fd5b9392505050565b600181811c908216806200036257607f821691505b602082108114156200038457634e487b7160e01b600052602260045260246000fd5b50919050565b60805160a05160c05160601c60e0516101005161012051612738620003dd6000396000611e8601526000611ed501526000611eb001526000611e0901526000611e3301526000611e5d01526127386000f3fe60806040526004361061014b5760003560e01c806370a08231116100b6578063c87b56dd1161006f578063c87b56dd146103b1578063d5391393146103d1578063d547741f14610405578063e322ad2b14610425578063e985e9c514610447578063f7fc5ce41461049057600080fd5b806370a082311461030757806391d148541461032757806395d89b4114610347578063a217fddf1461035c578063a22cb46514610371578063b88d4fde1461039157600080fd5b80632f2ff15d116101085780632f2ff15d1461025f57806336568abe1461027f5780633ccfd60b1461029f57806342842e0e146102b4578063564b81ef146102d45780636352211e146102e757600080fd5b806301ffc9a71461015057806306fdde0314610185578063081812fc146101a7578063095ea7b3146101df57806323b872dd14610201578063248a9ca314610221575b600080fd5b34801561015c57600080fd5b5061017061016b366004612335565b6104a3565b60405190151581526020015b60405180910390f35b34801561019157600080fd5b5061019a6104c3565b60405161017c919061248a565b3480156101b357600080fd5b506101c76101c23660046122fb565b610555565b6040516001600160a01b03909116815260200161017c565b3480156101eb57600080fd5b506101ff6101fa3660046122d2565b6105e2565b005b34801561020d57600080fd5b506101ff61021c366004612140565b6106f8565b34801561022d57600080fd5b5061025161023c3660046122fb565b60009081526007602052604090206001015490565b60405190815260200161017c565b34801561026b57600080fd5b506101ff61027a366004612313565b610729565b34801561028b57600080fd5b506101ff61029a366004612313565b61074f565b3480156102ab57600080fd5b506101ff6107cd565b3480156102c057600080fd5b506101ff6102cf366004612140565b610892565b3480156102e057600080fd5b5046610251565b3480156102f357600080fd5b506101c76103023660046122fb565b6108ad565b34801561031357600080fd5b506102516103223660046120f4565b610924565b34801561033357600080fd5b50610170610342366004612313565b6109ab565b34801561035357600080fd5b5061019a6109d6565b34801561036857600080fd5b50610251600081565b34801561037d57600080fd5b506101ff61038c366004612250565b6109e5565b34801561039d57600080fd5b506101ff6103ac36600461217b565b6109f0565b3480156103bd57600080fd5b5061019a6103cc3660046122fb565b610a28565b3480156103dd57600080fd5b506102517f9f2df0fed2c77648de5860a4cc508cd0818c85b8b8a1ab4ceeef8d981c8956a681565b34801561041157600080fd5b506101ff610420366004612313565b610b9f565b34801561043157600080fd5b5033600090815260086020526040902054610251565b34801561045357600080fd5b5061017061046236600461210e565b6001600160a01b03918216600090815260056020908152604080832093909416825291909152205460ff1690565b61025161049e36600461228a565b610bc5565b60006104ae82610d67565b806104bd57506104bd82610db7565b92915050565b6060600080546104d290612640565b80601f01602080910402602001604051908101604052809291908181526020018280546104fe90612640565b801561054b5780601f106105205761010080835404028352916020019161054b565b820191906000526020600020905b81548152906001019060200180831161052e57829003601f168201915b5050505050905090565b600061056082610ddc565b6105c65760405162461bcd60e51b815260206004820152602c60248201527f4552433732313a20617070726f76656420717565727920666f72206e6f6e657860448201526b34b9ba32b73a103a37b5b2b760a11b60648201526084015b60405180910390fd5b506000908152600460205260409020546001600160a01b031690565b60006105ed826108ad565b9050806001600160a01b0316836001600160a01b0316141561065b5760405162461bcd60e51b815260206004820152602160248201527f4552433732313a20617070726f76616c20746f2063757272656e74206f776e656044820152603960f91b60648201526084016105bd565b336001600160a01b038216148061067757506106778133610462565b6106e95760405162461bcd60e51b815260206004820152603860248201527f4552433732313a20617070726f76652063616c6c6572206973206e6f74206f7760448201527f6e6572206e6f7220617070726f76656420666f7220616c6c000000000000000060648201526084016105bd565b6106f38383610df9565b505050565b6107023382610e67565b61071e5760405162461bcd60e51b81526004016105bd906124ef565b6106f3838383610f4d565b60008281526007602052604090206001015461074581336110ed565b6106f38383611151565b6001600160a01b03811633146107bf5760405162461bcd60e51b815260206004820152602f60248201527f416363657373436f6e74726f6c3a2063616e206f6e6c792072656e6f756e636560448201526e103937b632b9903337b91039b2b63360891b60648201526084016105bd565b6107c982826111d7565b5050565b6107f77f9f2df0fed2c77648de5860a4cc508cd0818c85b8b8a1ab4ceeef8d981c8956a6336109ab565b61084f5760405162461bcd60e51b8152602060048201526024808201527f4f6e6c7920617574686f72697a6564206d696e746572732063616e20776974686044820152636472617760e01b60648201526084016105bd565b3360008181526008602052604080822080549083905590519091839183156108fc0291849190818181858888f193505050501580156106f3573d6000803e3d6000fd5b6106f3838383604051806020016040528060008152506109f0565b6000818152600260205260408120546001600160a01b0316806104bd5760405162461bcd60e51b815260206004820152602960248201527f4552433732313a206f776e657220717565727920666f72206e6f6e657869737460448201526832b73a103a37b5b2b760b91b60648201526084016105bd565b60006001600160a01b03821661098f5760405162461bcd60e51b815260206004820152602a60248201527f4552433732313a2062616c616e636520717565727920666f7220746865207a65604482015269726f206164647265737360b01b60648201526084016105bd565b506001600160a01b031660009081526003602052604090205490565b60009182526007602090815260408084206001600160a01b0393909316845291905290205460ff1690565b6060600180546104d290612640565b6107c933838361123e565b6109fa3383610e67565b610a165760405162461bcd60e51b81526004016105bd906124ef565b610a228484848461130d565b50505050565b6060610a3382610ddc565b610a995760405162461bcd60e51b815260206004820152603160248201527f45524337323155524953746f726167653a2055524920717565727920666f72206044820152703737b732bc34b9ba32b73a103a37b5b2b760791b60648201526084016105bd565b60008281526006602052604081208054610ab290612640565b80601f0160208091040260200160405190810160405280929190818152602001828054610ade90612640565b8015610b2b5780601f10610b0057610100808354040283529160200191610b2b565b820191906000526020600020905b815481529060010190602001808311610b0e57829003601f168201915b505050505090506000610b4960408051602081019091526000815290565b9050805160001415610b5c575092915050565b815115610b8e578082604051602001610b769291906123a9565b60405160208183030381529060405292505050919050565b610b9784611340565b949350505050565b600082815260076020526040902060010154610bbb81336110ed565b6106f383836111d7565b600080610bd183611418565b90508260200135341015610c275760405162461bcd60e51b815260206004820152601c60248201527f496e73756666696369656e742066756e647320746f2072656465656d0000000060448201526064016105bd565b6000610c3960a08501608086016120f4565b90506001600160a01b0381166108fc6064610c5860c0880135826125e6565b610c6290346125c7565b610c6c91906125b3565b6040518115909202916000818181858888f19350505050158015610c94573d6000803e3d6000fd5b506000610ca760c0860160a087016120f4565b90506001600160a01b0381166108fc6064610cc660c0890135346125c7565b610cd091906125b3565b6040518115909202916000818181858888f19350505050158015610cf8573d6000803e3d6000fd5b50610d04838635611471565b610d508535610d166040880188612585565b8080601f0160208091040260200160405190810160405280939291908181526020018383808284376000920191909152506115a492505050565b610d5c83878735610f4d565b505091359392505050565b60006001600160e01b031982166380ac58cd60e01b1480610d9857506001600160e01b03198216635b5e139f60e01b145b806104bd57506301ffc9a760e01b6001600160e01b03198316146104bd565b60006001600160e01b03198216637965db0b60e01b14806104bd57506104bd82610d67565b6000908152600260205260409020546001600160a01b0316151590565b600081815260046020526040902080546001600160a01b0319166001600160a01b0384169081179091558190610e2e826108ad565b6001600160a01b03167f8c5be1e5ebec7d5bd14f71427d1e84f3dd0314c0f7b2291e5b200ac8c7c3b92560405160405180910390a45050565b6000610e7282610ddc565b610ed35760405162461bcd60e51b815260206004820152602c60248201527f4552433732313a206f70657261746f7220717565727920666f72206e6f6e657860448201526b34b9ba32b73a103a37b5b2b760a11b60648201526084016105bd565b6000610ede836108ad565b9050806001600160a01b0316846001600160a01b03161480610f195750836001600160a01b0316610f0e84610555565b6001600160a01b0316145b80610b9757506001600160a01b0380821660009081526005602090815260408083209388168352929052205460ff16610b97565b826001600160a01b0316610f60826108ad565b6001600160a01b031614610fc85760405162461bcd60e51b815260206004820152602960248201527f4552433732313a207472616e73666572206f6620746f6b656e2074686174206960448201526839903737ba1037bbb760b91b60648201526084016105bd565b6001600160a01b03821661102a5760405162461bcd60e51b8152602060048201526024808201527f4552433732313a207472616e7366657220746f20746865207a65726f206164646044820152637265737360e01b60648201526084016105bd565b611035600082610df9565b6001600160a01b038316600090815260036020526040812080546001929061105e9084906125e6565b90915550506001600160a01b038216600090815260036020526040812080546001929061108c90849061259b565b909155505060008181526002602052604080822080546001600160a01b0319166001600160a01b0386811691821790925591518493918716917fddf252ad1be2c89b69c2b068fc378daa952ba7f163c4a11628f55a4df523b3ef91a4505050565b6110f782826109ab565b6107c95761110f816001600160a01b0316601461162f565b61111a83602061162f565b60405160200161112b9291906123d8565b60408051601f198184030181529082905262461bcd60e51b82526105bd9160040161248a565b61115b82826109ab565b6107c95760008281526007602090815260408083206001600160a01b03851684529091529020805460ff191660011790556111933390565b6001600160a01b0316816001600160a01b0316837f2f8788117e7eff1d82e926ec794901d17c78024a50270940304540a733656f0d60405160405180910390a45050565b6111e182826109ab565b156107c95760008281526007602090815260408083206001600160a01b0385168085529252808320805460ff1916905551339285917ff6391f5c32d9c69d2a47ea670b442974b53935d1edc7fd64eb21e047a839171b9190a45050565b816001600160a01b0316836001600160a01b031614156112a05760405162461bcd60e51b815260206004820152601960248201527f4552433732313a20617070726f766520746f2063616c6c65720000000000000060448201526064016105bd565b6001600160a01b03838116600081815260056020908152604080832094871680845294825291829020805460ff191686151590811790915591519182527f17307eab39ab6107e8899845ad3d59bd9653f200f220920489ca2b5937696c31910160405180910390a3505050565b611318848484610f4d565b61132484848484611811565b610a225760405162461bcd60e51b81526004016105bd9061249d565b606061134b82610ddc565b6113af5760405162461bcd60e51b815260206004820152602f60248201527f4552433732314d657461646174613a2055524920717565727920666f72206e6f60448201526e3732bc34b9ba32b73a103a37b5b2b760891b60648201526084016105bd565b60006113c660408051602081019091526000815290565b905060008151116113e65760405180602001604052806000815250611411565b806113f08461191e565b6040516020016114019291906123a9565b6040516020818303038152906040525b9392505050565b60008061142483611a38565b9050611411816114376060860186612540565b8080601f016020809104026020016040519081016040528093929190818152602001838380828437600092019190915250611b1692505050565b6001600160a01b0382166114c75760405162461bcd60e51b815260206004820181905260248201527f4552433732313a206d696e7420746f20746865207a65726f206164647265737360448201526064016105bd565b6114d081610ddc565b1561151d5760405162461bcd60e51b815260206004820152601c60248201527f4552433732313a20746f6b656e20616c7265616479206d696e7465640000000060448201526064016105bd565b6001600160a01b038216600090815260036020526040812080546001929061154690849061259b565b909155505060008181526002602052604080822080546001600160a01b0319166001600160a01b03861690811790915590518392907fddf252ad1be2c89b69c2b068fc378daa952ba7f163c4a11628f55a4df523b3ef908290a45050565b6115ad82610ddc565b6116105760405162461bcd60e51b815260206004820152602e60248201527f45524337323155524953746f726167653a2055524920736574206f66206e6f6e60448201526d32bc34b9ba32b73a103a37b5b2b760911b60648201526084016105bd565b600082815260066020908152604090912082516106f39284019061203f565b6060600061163e8360026125c7565b61164990600261259b565b67ffffffffffffffff81111561166f57634e487b7160e01b600052604160045260246000fd5b6040519080825280601f01601f191660200182016040528015611699576020820181803683370190505b509050600360fc1b816000815181106116c257634e487b7160e01b600052603260045260246000fd5b60200101906001600160f81b031916908160001a905350600f60fb1b816001815181106116ff57634e487b7160e01b600052603260045260246000fd5b60200101906001600160f81b031916908160001a90535060006117238460026125c7565b61172e90600161259b565b90505b60018111156117c2576f181899199a1a9b1b9c1cb0b131b232b360811b85600f166010811061177057634e487b7160e01b600052603260045260246000fd5b1a60f81b82828151811061179457634e487b7160e01b600052603260045260246000fd5b60200101906001600160f81b031916908160001a90535060049490941c936117bb81612629565b9050611731565b5083156114115760405162461bcd60e51b815260206004820181905260248201527f537472696e67733a20686578206c656e67746820696e73756666696369656e7460448201526064016105bd565b60006001600160a01b0384163b1561191357604051630a85bd0160e11b81526001600160a01b0385169063150b7a029061185590339089908890889060040161244d565b602060405180830381600087803b15801561186f57600080fd5b505af192505050801561189f575060408051601f3d908101601f1916820190925261189c91810190612351565b60015b6118f9573d8080156118cd576040519150601f19603f3d011682016040523d82523d6000602084013e6118d2565b606091505b5080516118f15760405162461bcd60e51b81526004016105bd9061249d565b805181602001fd5b6001600160e01b031916630a85bd0160e11b149050610b97565b506001949350505050565b6060816119425750506040805180820190915260018152600360fc1b602082015290565b8160005b811561196c57806119568161267b565b91506119659050600a836125b3565b9150611946565b60008167ffffffffffffffff81111561199557634e487b7160e01b600052604160045260246000fd5b6040519080825280601f01601f1916602001820160405280156119bf576020820181803683370190505b5090505b8415610b97576119d46001836125e6565b91506119e1600a86612696565b6119ec90603061259b565b60f81b818381518110611a0f57634e487b7160e01b600052603260045260246000fd5b60200101906001600160f81b031916908160001a905350611a31600a866125b3565b94506119c3565b60006104bd7f31e9b5d48afe00845bc5c9448ce57ed15fc402262b4a8cd196ccf0a40cfd3ac883356020850135611a726040870187612585565b604051611a80929190612399565b604051908190039020611a9960a08801608089016120f4565b611aa960c0890160a08a016120f4565b604080516020810197909752860194909452606085019290925260808401526001600160a01b0390811660a08401521660c08281019190915284013560e0828101919091528401356101008201526101200160405160208183030381529060405280519060200120611b3a565b6000806000611b258585611b88565b91509150611b3281611bf8565b509392505050565b60006104bd611b47611dfc565b8360405161190160f01b6020820152602281018390526042810182905260009060620160405160208183030381529060405280519060200120905092915050565b600080825160411415611bbf5760208301516040840151606085015160001a611bb387828585611f23565b94509450505050611bf1565b825160401415611be95760208301516040840151611bde868383612010565b935093505050611bf1565b506000905060025b9250929050565b6000816004811115611c1a57634e487b7160e01b600052602160045260246000fd5b1415611c235750565b6001816004811115611c4557634e487b7160e01b600052602160045260246000fd5b1415611c935760405162461bcd60e51b815260206004820152601860248201527f45434453413a20696e76616c6964207369676e6174757265000000000000000060448201526064016105bd565b6002816004811115611cb557634e487b7160e01b600052602160045260246000fd5b1415611d035760405162461bcd60e51b815260206004820152601f60248201527f45434453413a20696e76616c6964207369676e6174757265206c656e6774680060448201526064016105bd565b6003816004811115611d2557634e487b7160e01b600052602160045260246000fd5b1415611d7e5760405162461bcd60e51b815260206004820152602260248201527f45434453413a20696e76616c6964207369676e6174757265202773272076616c604482015261756560f01b60648201526084016105bd565b6004816004811115611da057634e487b7160e01b600052602160045260246000fd5b1415611df95760405162461bcd60e51b815260206004820152602260248201527f45434453413a20696e76616c6964207369676e6174757265202776272076616c604482015261756560f01b60648201526084016105bd565b50565b6000306001600160a01b037f000000000000000000000000000000000000000000000000000000000000000016148015611e5557507f000000000000000000000000000000000000000000000000000000000000000046145b15611e7f57507f000000000000000000000000000000000000000000000000000000000000000090565b50604080517f00000000000000000000000000000000000000000000000000000000000000006020808301919091527f0000000000000000000000000000000000000000000000000000000000000000828401527f000000000000000000000000000000000000000000000000000000000000000060608301524660808301523060a0808401919091528351808403909101815260c0909201909252805191012090565b6000807f7fffffffffffffffffffffffffffffff5d576e7357a4501ddfe92f46681b20a0831115611f5a5750600090506003612007565b8460ff16601b14158015611f7257508460ff16601c14155b15611f835750600090506004612007565b6040805160008082526020820180845289905260ff881692820192909252606081018690526080810185905260019060a0016020604051602081039080840390855afa158015611fd7573d6000803e3d6000fd5b5050604051601f1901519150506001600160a01b03811661200057600060019250925050612007565b9150600090505b94509492505050565b6000806001600160ff1b03831660ff84901c601b0161203187828885611f23565b935093505050935093915050565b82805461204b90612640565b90600052602060002090601f01602090048101928261206d57600085556120b3565b82601f1061208657805160ff19168380011785556120b3565b828001600101855582156120b3579182015b828111156120b3578251825591602001919060010190612098565b506120bf9291506120c3565b5090565b5b808211156120bf57600081556001016120c4565b80356001600160a01b03811681146120ef57600080fd5b919050565b600060208284031215612105578081fd5b611411826120d8565b60008060408385031215612120578081fd5b612129836120d8565b9150612137602084016120d8565b90509250929050565b600080600060608486031215612154578081fd5b61215d846120d8565b925061216b602085016120d8565b9150604084013590509250925092565b60008060008060808587031215612190578081fd5b612199856120d8565b93506121a7602086016120d8565b925060408501359150606085013567ffffffffffffffff808211156121ca578283fd5b818701915087601f8301126121dd578283fd5b8135818111156121ef576121ef6126d6565b604051601f8201601f19908116603f01168101908382118183101715612217576122176126d6565b816040528281528a602084870101111561222f578586fd5b82602086016020830137918201602001949094529598949750929550505050565b60008060408385031215612262578182fd5b61226b836120d8565b91506020830135801515811461227f578182fd5b809150509250929050565b6000806040838503121561229c578182fd5b6122a5836120d8565b9150602083013567ffffffffffffffff8111156122c0578182fd5b8301610100818603121561227f578182fd5b600080604083850312156122e4578182fd5b6122ed836120d8565b946020939093013593505050565b60006020828403121561230c578081fd5b5035919050565b60008060408385031215612325578182fd5b82359150612137602084016120d8565b600060208284031215612346578081fd5b8135611411816126ec565b600060208284031215612362578081fd5b8151611411816126ec565b600081518084526123858160208601602086016125fd565b601f01601f19169290920160200192915050565b8183823760009101908152919050565b600083516123bb8184602088016125fd565b8351908301906123cf8183602088016125fd565b01949350505050565b7f416363657373436f6e74726f6c3a206163636f756e74200000000000000000008152600083516124108160178501602088016125fd565b7001034b99036b4b9b9b4b733903937b6329607d1b60179184019182015283516124418160288401602088016125fd565b01602801949350505050565b6001600160a01b03858116825284166020820152604081018390526080606082018190526000906124809083018461236d565b9695505050505050565b602081526000611411602083018461236d565b60208082526032908201527f4552433732313a207472616e7366657220746f206e6f6e20455243373231526560408201527131b2b4bb32b91034b6b83632b6b2b73a32b960711b606082015260800190565b60208082526031908201527f4552433732313a207472616e736665722063616c6c6572206973206e6f74206f6040820152701ddb995c881b9bdc88185c1c1c9bdd9959607a1b606082015260800190565b6000808335601e19843603018112612556578283fd5b83018035915067ffffffffffffffff821115612570578283fd5b602001915036819003821315611bf157600080fd5b6000808335601e19843603018112612556578182fd5b600082198211156125ae576125ae6126aa565b500190565b6000826125c2576125c26126c0565b500490565b60008160001904831182151516156125e1576125e16126aa565b500290565b6000828210156125f8576125f86126aa565b500390565b60005b83811015612618578181015183820152602001612600565b83811115610a225750506000910152565b600081612638576126386126aa565b506000190190565b600181811c9082168061265457607f821691505b6020821081141561267557634e487b7160e01b600052602260045260246000fd5b50919050565b600060001982141561268f5761268f6126aa565b5060010190565b6000826126a5576126a56126c0565b500690565b634e487b7160e01b600052601160045260246000fd5b634e487b7160e01b600052601260045260246000fd5b634e487b7160e01b600052604160045260246000fd5b6001600160e01b031981168114611df957600080fdfea26469706673582212207fb28a67d3f5ccad04be4cca3c2287044e8ee06cf99bcd56e2c75dfeafc30c7f64736f6c63430008040033",
  "linkReferences": {},
  "deployedLinkReferences": {}
}