{
  "_format": "hh-sol-artifact-1",
  "contractName": "NFT1155",
  "sourceName": "contracts/NFT1155.sol",
  "abi": [
    {
      "inputs": [
        {
          "internalType": "string",
          "name": "uri",
          "type": "string"
        }
      ],
      "stateMutability": "nonpayable",
      "type": "constructor"
    },
    {
      "anonymous": false,
      "inputs": [
        {
          "indexed": true,
          "internalType": "address",
          "name": "account",
          "type": "address"
        },
        {
          "indexed": true,
          "internalType": "address",
          "name": "operator",
          "type": "address"
        },
        {
          "indexed": false,
          "internalType": "bool",
          "name": "approved",
          "type": "bool"
        }
      ],
      "name": "ApprovalForAll",
      "type": "event"
    },
    {
      "anonymous": false,
      "inputs": [
        {
          "components": [
            {
              "internalType": "address",
              "name": "creatorAddress",
              "type": "address"
            },
            {
              "internalType": "uint8",
              "name": "royalty",
              "type": "uint8"
            }
          ],
          "indexed": false,
          "internalType": "struct NFT1155.CreatorRoyaltyStruct[]",
          "name": "x",
          "type": "tuple[]"
        }
      ],
      "name": "CreatorRoyaltyStructEvent",
      "type": "event"
    },
    {
      "anonymous": false,
      "inputs": [
        {
          "indexed": false,
          "internalType": "address",
          "name": "account",
          "type": "address"
        }
      ],
      "name": "Paused",
      "type": "event"
    },
    {
      "anonymous": false,
      "inputs": [
        {
          "indexed": true,
          "internalType": "bytes32",
          "name": "role",
          "type": "bytes32"
        },
        {
          "indexed": true,
          "internalType": "bytes32",
          "name": "previousAdminRole",
          "type": "bytes32"
        },
        {
          "indexed": true,
          "internalType": "bytes32",
          "name": "newAdminRole",
          "type": "bytes32"
        }
      ],
      "name": "RoleAdminChanged",
      "type": "event"
    },
    {
      "anonymous": false,
      "inputs": [
        {
          "indexed": true,
          "internalType": "bytes32",
          "name": "role",
          "type": "bytes32"
        },
        {
          "indexed": true,
          "internalType": "address",
          "name": "account",
          "type": "address"
        },
        {
          "indexed": true,
          "internalType": "address",
          "name": "sender",
          "type": "address"
        }
      ],
      "name": "RoleGranted",
      "type": "event"
    },
    {
      "anonymous": false,
      "inputs": [
        {
          "indexed": true,
          "internalType": "bytes32",
          "name": "role",
          "type": "bytes32"
        },
        {
          "indexed": true,
          "internalType": "address",
          "name": "account",
          "type": "address"
        },
        {
          "indexed": true,
          "internalType": "address",
          "name": "sender",
          "type": "address"
        }
      ],
      "name": "RoleRevoked",
      "type": "event"
    },
    {
      "anonymous": false,
      "inputs": [
        {
          "indexed": true,
          "internalType": "address",
          "name": "operator",
          "type": "address"
        },
        {
          "indexed": true,
          "internalType": "address",
          "name": "from",
          "type": "address"
        },
        {
          "indexed": true,
          "internalType": "address",
          "name": "to",
          "type": "address"
        },
        {
          "indexed": false,
          "internalType": "uint256[]",
          "name": "ids",
          "type": "uint256[]"
        },
        {
          "indexed": false,
          "internalType": "uint256[]",
          "name": "values",
          "type": "uint256[]"
        }
      ],
      "name": "TransferBatch",
      "type": "event"
    },
    {
      "anonymous": false,
      "inputs": [
        {
          "indexed": true,
          "internalType": "address",
          "name": "operator",
          "type": "address"
        },
        {
          "indexed": true,
          "internalType": "address",
          "name": "from",
          "type": "address"
        },
        {
          "indexed": true,
          "internalType": "address",
          "name": "to",
          "type": "address"
        },
        {
          "indexed": false,
          "internalType": "uint256",
          "name": "id",
          "type": "uint256"
        },
        {
          "indexed": false,
          "internalType": "uint256",
          "name": "value",
          "type": "uint256"
        }
      ],
      "name": "TransferSingle",
      "type": "event"
    },
    {
      "anonymous": false,
      "inputs": [
        {
          "indexed": false,
          "internalType": "string",
          "name": "value",
          "type": "string"
        },
        {
          "indexed": true,
          "internalType": "uint256",
          "name": "id",
          "type": "uint256"
        }
      ],
      "name": "URI",
      "type": "event"
    },
    {
      "anonymous": false,
      "inputs": [
        {
          "indexed": false,
          "internalType": "address",
          "name": "account",
          "type": "address"
        }
      ],
      "name": "Unpaused",
      "type": "event"
    },
    {
      "anonymous": false,
      "inputs": [
        {
          "indexed": false,
          "internalType": "address",
          "name": "x",
          "type": "address"
        }
      ],
      "name": "addressEvent",
      "type": "event"
    },
    {
      "anonymous": false,
      "inputs": [
        {
          "indexed": false,
          "internalType": "uint256",
          "name": "x",
          "type": "uint256"
        }
      ],
      "name": "count",
      "type": "event"
    },
    {
      "inputs": [],
      "name": "DEFAULT_ADMIN_ROLE",
      "outputs": [
        {
          "internalType": "bytes32",
          "name": "",
          "type": "bytes32"
        }
      ],
      "stateMutability": "view",
      "type": "function"
    },
    {
      "inputs": [],
      "name": "MINTER_ROLE",
      "outputs": [
        {
          "internalType": "bytes32",
          "name": "",
          "type": "bytes32"
        }
      ],
      "stateMutability": "view",
      "type": "function"
    },
    {
      "inputs": [],
      "name": "PAUSER_ROLE",
      "outputs": [
        {
          "internalType": "bytes32",
          "name": "",
          "type": "bytes32"
        }
      ],
      "stateMutability": "view",
      "type": "function"
    },
    {
      "inputs": [
        {
          "internalType": "address",
          "name": "account",
          "type": "address"
        },
        {
          "internalType": "uint256",
          "name": "id",
          "type": "uint256"
        }
      ],
      "name": "balanceOf",
      "outputs": [
        {
          "internalType": "uint256",
          "name": "",
          "type": "uint256"
        }
      ],
      "stateMutability": "view",
      "type": "function"
    },
    {
      "inputs": [
        {
          "internalType": "address[]",
          "name": "accounts",
          "type": "address[]"
        },
        {
          "internalType": "uint256[]",
          "name": "ids",
          "type": "uint256[]"
        }
      ],
      "name": "balanceOfBatch",
      "outputs": [
        {
          "internalType": "uint256[]",
          "name": "",
          "type": "uint256[]"
        }
      ],
      "stateMutability": "view",
      "type": "function"
    },
    {
      "inputs": [
        {
          "internalType": "address",
          "name": "account",
          "type": "address"
        },
        {
          "internalType": "uint256",
          "name": "id",
          "type": "uint256"
        },
        {
          "internalType": "uint256",
          "name": "value",
          "type": "uint256"
        }
      ],
      "name": "burn",
      "outputs": [],
      "stateMutability": "nonpayable",
      "type": "function"
    },
    {
      "inputs": [
        {
          "internalType": "address",
          "name": "account",
          "type": "address"
        },
        {
          "internalType": "uint256[]",
          "name": "ids",
          "type": "uint256[]"
        },
        {
          "internalType": "uint256[]",
          "name": "values",
          "type": "uint256[]"
        }
      ],
      "name": "burnBatch",
      "outputs": [],
      "stateMutability": "nonpayable",
      "type": "function"
    },
    {
      "inputs": [],
      "name": "getChainID",
      "outputs": [
        {
          "internalType": "uint256",
          "name": "",
          "type": "uint256"
        }
      ],
      "stateMutability": "view",
      "type": "function"
    },
    {
      "inputs": [
        {
          "internalType": "bytes32",
          "name": "role",
          "type": "bytes32"
        }
      ],
      "name": "getRoleAdmin",
      "outputs": [
        {
          "internalType": "bytes32",
          "name": "",
          "type": "bytes32"
        }
      ],
      "stateMutability": "view",
      "type": "function"
    },
    {
      "inputs": [
        {
          "internalType": "bytes32",
          "name": "role",
          "type": "bytes32"
        },
        {
          "internalType": "uint256",
          "name": "index",
          "type": "uint256"
        }
      ],
      "name": "getRoleMember",
      "outputs": [
        {
          "internalType": "address",
          "name": "",
          "type": "address"
        }
      ],
      "stateMutability": "view",
      "type": "function"
    },
    {
      "inputs": [
        {
          "internalType": "bytes32",
          "name": "role",
          "type": "bytes32"
        }
      ],
      "name": "getRoleMemberCount",
      "outputs": [
        {
          "internalType": "uint256",
          "name": "",
          "type": "uint256"
        }
      ],
      "stateMutability": "view",
      "type": "function"
    },
    {
      "inputs": [
        {
          "internalType": "bytes32",
          "name": "role",
          "type": "bytes32"
        },
        {
          "internalType": "address",
          "name": "account",
          "type": "address"
        }
      ],
      "name": "grantRole",
      "outputs": [],
      "stateMutability": "nonpayable",
      "type": "function"
    },
    {
      "inputs": [
        {
          "internalType": "bytes32",
          "name": "role",
          "type": "bytes32"
        },
        {
          "internalType": "address",
          "name": "account",
          "type": "address"
        }
      ],
      "name": "hasRole",
      "outputs": [
        {
          "internalType": "bool",
          "name": "",
          "type": "bool"
        }
      ],
      "stateMutability": "view",
      "type": "function"
    },
    {
      "inputs": [
        {
          "internalType": "address",
          "name": "account",
          "type": "address"
        },
        {
          "internalType": "address",
          "name": "operator",
          "type": "address"
        }
      ],
      "name": "isApprovedForAll",
      "outputs": [
        {
          "internalType": "bool",
          "name": "",
          "type": "bool"
        }
      ],
      "stateMutability": "view",
      "type": "function"
    },
    {
      "inputs": [
        {
          "internalType": "address",
          "name": "to",
          "type": "address"
        },
        {
          "internalType": "uint256",
          "name": "id",
          "type": "uint256"
        },
        {
          "internalType": "uint256",
          "name": "amount",
          "type": "uint256"
        },
        {
          "internalType": "bytes",
          "name": "data",
          "type": "bytes"
        }
      ],
      "name": "mint",
      "outputs": [],
      "stateMutability": "nonpayable",
      "type": "function"
    },
    {
      "inputs": [
        {
          "internalType": "address",
          "name": "to",
          "type": "address"
        },
        {
          "internalType": "uint256[]",
          "name": "ids",
          "type": "uint256[]"
        },
        {
          "internalType": "uint256[]",
          "name": "amounts",
          "type": "uint256[]"
        },
        {
          "internalType": "bytes",
          "name": "data",
          "type": "bytes"
        }
      ],
      "name": "mintBatch",
      "outputs": [],
      "stateMutability": "nonpayable",
      "type": "function"
    },
    {
      "inputs": [],
      "name": "pause",
      "outputs": [],
      "stateMutability": "nonpayable",
      "type": "function"
    },
    {
      "inputs": [],
      "name": "paused",
      "outputs": [
        {
          "internalType": "bool",
          "name": "",
          "type": "bool"
        }
      ],
      "stateMutability": "view",
      "type": "function"
    },
    {
      "inputs": [
        {
          "internalType": "address",
          "name": "redeemer",
          "type": "address"
        },
        {
          "components": [
            {
              "internalType": "uint256",
              "name": "tokenId",
              "type": "uint256"
            },
            {
              "internalType": "uint256",
              "name": "amount",
              "type": "uint256"
            },
            {
              "internalType": "uint256",
              "name": "minPrice",
              "type": "uint256"
            },
            {
              "internalType": "bytes",
              "name": "uri",
              "type": "bytes"
            },
            {
              "internalType": "bytes",
              "name": "signature",
              "type": "bytes"
            },
            {
              "internalType": "address",
              "name": "owner",
              "type": "address"
            },
            {
              "internalType": "address[]",
              "name": "creatorAddress",
              "type": "address[]"
            },
            {
              "internalType": "uint8[]",
              "name": "royalties",
              "type": "uint8[]"
            },
            {
              "internalType": "uint256",
              "name": "fee",
              "type": "uint256"
            },
            {
              "internalType": "bool",
              "name": "isCreator",
              "type": "bool"
            },
            {
              "internalType": "uint256",
              "name": "totalAmount",
              "type": "uint256"
            }
          ],
          "internalType": "struct NFT1155.NFTVoucher",
          "name": "voucher",
          "type": "tuple"
        }
      ],
      "name": "redeem",
      "outputs": [
        {
          "internalType": "uint256",
          "name": "",
          "type": "uint256"
        }
      ],
      "stateMutability": "payable",
      "type": "function"
    },
    {
      "inputs": [
        {
          "internalType": "bytes32",
          "name": "role",
          "type": "bytes32"
        },
        {
          "internalType": "address",
          "name": "account",
          "type": "address"
        }
      ],
      "name": "renounceRole",
      "outputs": [],
      "stateMutability": "nonpayable",
      "type": "function"
    },
    {
      "inputs": [
        {
          "internalType": "bytes32",
          "name": "role",
          "type": "bytes32"
        },
        {
          "internalType": "address",
          "name": "account",
          "type": "address"
        }
      ],
      "name": "revokeRole",
      "outputs": [],
      "stateMutability": "nonpayable",
      "type": "function"
    },
    {
      "inputs": [
        {
          "internalType": "address",
          "name": "from",
          "type": "address"
        },
        {
          "internalType": "address",
          "name": "to",
          "type": "address"
        },
        {
          "internalType": "uint256[]",
          "name": "ids",
          "type": "uint256[]"
        },
        {
          "internalType": "uint256[]",
          "name": "amounts",
          "type": "uint256[]"
        },
        {
          "internalType": "bytes",
          "name": "data",
          "type": "bytes"
        }
      ],
      "name": "safeBatchTransferFrom",
      "outputs": [],
      "stateMutability": "nonpayable",
      "type": "function"
    },
    {
      "inputs": [
        {
          "internalType": "address",
          "name": "from",
          "type": "address"
        },
        {
          "internalType": "address",
          "name": "to",
          "type": "address"
        },
        {
          "internalType": "uint256",
          "name": "id",
          "type": "uint256"
        },
        {
          "internalType": "uint256",
          "name": "amount",
          "type": "uint256"
        },
        {
          "internalType": "bytes",
          "name": "data",
          "type": "bytes"
        }
      ],
      "name": "safeTransferFrom",
      "outputs": [],
      "stateMutability": "nonpayable",
      "type": "function"
    },
    {
      "inputs": [
        {
          "internalType": "address",
          "name": "operator",
          "type": "address"
        },
        {
          "internalType": "bool",
          "name": "approved",
          "type": "bool"
        }
      ],
      "name": "setApprovalForAll",
      "outputs": [],
      "stateMutability": "nonpayable",
      "type": "function"
    },
    {
      "inputs": [
        {
          "internalType": "bytes4",
          "name": "interfaceId",
          "type": "bytes4"
        }
      ],
      "name": "supportsInterface",
      "outputs": [
        {
          "internalType": "bool",
          "name": "",
          "type": "bool"
        }
      ],
      "stateMutability": "view",
      "type": "function"
    },
    {
      "inputs": [],
      "name": "unpause",
      "outputs": [],
      "stateMutability": "nonpayable",
      "type": "function"
    },
    {
      "inputs": [
        {
          "internalType": "uint256",
          "name": "",
          "type": "uint256"
        }
      ],
      "name": "uri",
      "outputs": [
        {
          "internalType": "string",
          "name": "",
          "type": "string"
        }
      ],
      "stateMutability": "view",
      "type": "function"
    }
  ],
  "bytecode": "0x60806040523480156200001157600080fd5b5060405162003716380380620037168339810160408190526200003491620002f4565b80806200004181620000da565b506005805460ff1916905562000059600033620000f3565b62000074600080516020620036f683398151915233620000f3565b6200008f600080516020620036d683398151915233620000f3565b506200009d600033620000f3565b620000b8600080516020620036f683398151915233620000f3565b620000d3600080516020620036d683398151915233620000f3565b506200041d565b8051620000ef9060049060208401906200024e565b5050565b620000ef82826200011082826200013c60201b620011411760201c565b600082815260016020908152604090912062000137918390620011c5620001dc821b17901c565b505050565b6000828152602081815260408083206001600160a01b038516845290915290205460ff16620000ef576000828152602081815260408083206001600160a01b03851684529091529020805460ff19166001179055620001983390565b6001600160a01b0316816001600160a01b0316837f2f8788117e7eff1d82e926ec794901d17c78024a50270940304540a733656f0d60405160405180910390a45050565b6000620001f3836001600160a01b038416620001fc565b90505b92915050565b60008181526001830160205260408120546200024557508154600181810184556000848152602080822090930184905584548482528286019093526040902091909155620001f6565b506000620001f6565b8280546200025c90620003ca565b90600052602060002090601f016020900481019282620002805760008555620002cb565b82601f106200029b57805160ff1916838001178555620002cb565b82800160010185558215620002cb579182015b82811115620002cb578251825591602001919060010190620002ae565b50620002d9929150620002dd565b5090565b5b80821115620002d95760008155600101620002de565b6000602080838503121562000307578182fd5b82516001600160401b03808211156200031e578384fd5b818501915085601f83011262000332578384fd5b81518181111562000347576200034762000407565b604051601f8201601f19908116603f0116810190838211818310171562000372576200037262000407565b8160405282815288868487010111156200038a578687fd5b8693505b82841015620003ad57848401860151818501870152928501926200038e565b82841115620003be57868684830101525b98975050505050505050565b600181811c90821680620003df57607f821691505b602082108114156200040157634e487b7160e01b600052602260045260246000fd5b50919050565b634e487b7160e01b600052604160045260246000fd5b6132a9806200042d6000396000f3fe60806040526004361061019b5760003560e01c8063731133e9116100ec578063ca15c8731161008a578063e63ab1e911610064578063e63ab1e9146104b8578063e985e9c5146104ec578063f242432a14610535578063f5298aca1461055557600080fd5b8063ca15c87314610444578063d539139314610464578063d547741f1461049857600080fd5b80639010d07c116100c65780639010d07c146103b757806391d14854146103ef578063a217fddf1461040f578063a22cb4651461042457600080fd5b8063731133e91461036f57806378ed736b1461038f5780638456cb59146103a257600080fd5b80632f2ff15d116101595780634e1273f4116101335780634e1273f4146102f7578063564b81ef146103245780635c975abb146103375780636b20c4541461034f57600080fd5b80632f2ff15d146102a257806336568abe146102c25780633f4ba83a146102e257600080fd5b8062fdd58e146101a057806301ffc9a7146101d35780630e89341c146102035780631f7fdffa14610230578063248a9ca3146102525780632eb2c2d614610282575b600080fd5b3480156101ac57600080fd5b506101c06101bb3660046128b9565b610575565b6040519081526020015b60405180910390f35b3480156101df57600080fd5b506101f36101ee366004612a8b565b610611565b60405190151581526020016101ca565b34801561020f57600080fd5b5061022361021e366004612a30565b61061c565b6040516101ca9190612d01565b34801561023c57600080fd5b5061025061024b3660046127a4565b6106b0565b005b34801561025e57600080fd5b506101c061026d366004612a30565b60009081526020819052604090206001015490565b34801561028e57600080fd5b5061025061029d36600461262d565b610708565b3480156102ae57600080fd5b506102506102bd366004612a48565b61079f565b3480156102ce57600080fd5b506102506102dd366004612a48565b6107ca565b3480156102ee57600080fd5b50610250610848565b34801561030357600080fd5b50610317610312366004612966565b6108ee565b6040516101ca9190612cc0565b34801561033057600080fd5b50466101c0565b34801561034357600080fd5b5060055460ff166101f3565b34801561035b57600080fd5b5061025061036a366004612734565b610a4f565b34801561037b57600080fd5b5061025061038a366004612914565b610a92565b6101c061039d366004612872565b610ae4565b3480156103ae57600080fd5b50610250610f85565b3480156103c357600080fd5b506103d76103d2366004612a6a565b611029565b6040516001600160a01b0390911681526020016101ca565b3480156103fb57600080fd5b506101f361040a366004612a48565b611048565b34801561041b57600080fd5b506101c0600081565b34801561043057600080fd5b5061025061043f366004612838565b611071565b34801561045057600080fd5b506101c061045f366004612a30565b61107c565b34801561047057600080fd5b506101c07f9f2df0fed2c77648de5860a4cc508cd0818c85b8b8a1ab4ceeef8d981c8956a681565b3480156104a457600080fd5b506102506104b3366004612a48565b611093565b3480156104c457600080fd5b506101c07f65d7a28e3265b37a6474929f336521b332c1681b933f6cb9f3376673440d862a81565b3480156104f857600080fd5b506101f36105073660046125fb565b6001600160a01b03918216600090815260036020908152604080832093909416825291909152205460ff1690565b34801561054157600080fd5b506102506105503660046126d2565b6110b9565b34801561056157600080fd5b506102506105703660046128e2565b6110fe565b60006001600160a01b0383166105e65760405162461bcd60e51b815260206004820152602b60248201527f455243313135353a2062616c616e636520717565727920666f7220746865207a60448201526a65726f206164647265737360a81b60648201526084015b60405180910390fd5b5060008181526002602090815260408083206001600160a01b03861684529091529020545b92915050565b600061060b826111da565b60606004805461062b9061310b565b80601f01602080910402602001604051908101604052809291908181526020018280546106579061310b565b80156106a45780601f10610679576101008083540402835291602001916106a4565b820191906000526020600020905b81548152906001019060200180831161068757829003601f168201915b50505050509050919050565b6106da7f9f2df0fed2c77648de5860a4cc508cd0818c85b8b8a1ab4ceeef8d981c8956a633611048565b6106f65760405162461bcd60e51b81526004016105dd90612e71565b6107028484848461121a565b50505050565b6001600160a01b03851633148061072457506107248533610507565b61078b5760405162461bcd60e51b815260206004820152603260248201527f455243313135353a207472616e736665722063616c6c6572206973206e6f74206044820152711bdddb995c881b9bdc88185c1c1c9bdd995960721b60648201526084016105dd565b6107988585858585611391565b5050505050565b6000828152602081905260409020600101546107bb813361155a565b6107c583836115be565b505050565b6001600160a01b038116331461083a5760405162461bcd60e51b815260206004820152602f60248201527f416363657373436f6e74726f6c3a2063616e206f6e6c792072656e6f756e636560448201526e103937b632b9903337b91039b2b63360891b60648201526084016105dd565b61084482826115e0565b5050565b6108727f65d7a28e3265b37a6474929f336521b332c1681b933f6cb9f3376673440d862a33611048565b6108e45760405162461bcd60e51b815260206004820152603b60248201527f455243313135355072657365744d696e7465725061757365723a206d7573742060448201527f686176652070617573657220726f6c6520746f20756e7061757365000000000060648201526084016105dd565b6108ec611602565b565b606081518351146109535760405162461bcd60e51b815260206004820152602960248201527f455243313135353a206163636f756e747320616e6420696473206c656e677468604482015268040dad2e6dac2e8c6d60bb1b60648201526084016105dd565b600083516001600160401b0381111561097c57634e487b7160e01b600052604160045260246000fd5b6040519080825280602002602001820160405280156109a5578160200160208202803683370190505b50905060005b8451811015610a4757610a0c8582815181106109d757634e487b7160e01b600052603260045260246000fd5b60200260200101518583815181106109ff57634e487b7160e01b600052603260045260246000fd5b6020026020010151610575565b828281518110610a2c57634e487b7160e01b600052603260045260246000fd5b6020908102919091010152610a4081613172565b90506109ab565b509392505050565b6001600160a01b038316331480610a6b5750610a6b8333610507565b610a875760405162461bcd60e51b81526004016105dd90612da0565b6107c5838383611695565b610abc7f9f2df0fed2c77648de5860a4cc508cd0818c85b8b8a1ab4ceeef8d981c8956a633611048565b610ad85760405162461bcd60e51b81526004016105dd90612e71565b61070284848484611842565b8035600090815260076020526040812054610cd1576000610b0860c0840184612fa1565b90506001600160401b03811115610b2f57634e487b7160e01b600052604160045260246000fd5b604051908082528060200260200182016040528015610b7457816020015b6040805180820190915260008082526020820152815260200190600190039081610b4d5790505b50905060005b610b8760c0850185612fa1565b9050811015610cce576000610b9f60c0860186612fa1565b83818110610bbd57634e487b7160e01b600052603260045260246000fd5b9050602002016020810190610bd291906125e1565b905060006040518060400160405280836001600160a01b03168152602001878060e00190610c009190612fa1565b86818110610c1e57634e487b7160e01b600052603260045260246000fd5b9050602002016020810190610c339190612ac3565b60ff16815250905080848481518110610c5c57634e487b7160e01b600052603260045260246000fd5b602090810291909101810191909152863560009081526007825260408120805460018101825590825290829020835191018054939092015160ff16600160a01b026001600160a81b03199093166001600160a01b03909116179190911790555080610cc681613172565b915050610b7a565b50505b81356000908152600760205260409081902090517fb3d4672c7971fcc0f98397889d7aa114bdf470eb45573086e3f6a373b6cf359e91610d1091612c62565b60405180910390a16000610d24833561191a565b90506000610d3860c0850160a086016125e1565b90506001600160a01b0381166108fc6064610d5385826130a5565b610d609060ff163461306f565b610d6a919061304f565b6040518115909202916000818181858888f19350505050158015610d92573d6000803e3d6000fd5b5060005b8435600090815260076020526040902054811015610f155784356000908152600760205260408120805483908110610dde57634e487b7160e01b600052603260045260246000fd5b60009182526020808320909101548835835260079091526040822080546001600160a01b0390921693509084908110610e2757634e487b7160e01b600052603260045260246000fd5b600091825260209182902001546040516001600160a01b0385168152600160a01b90910460ff1692507f80b9c575d6f7a1b5952b944d4757a95fa037d4101e21beda363682b355041615910160405180910390a160405160ff821681527f3b3546c847d97c3a7b0e3ca8e6b847787ec4b4ffda85aa1c8c39a5cee6e398769060200160405180910390a16001600160a01b0382166108fc6064610ecd60ff85163461306f565b610ed7919061304f565b6040518115909202916000818181858888f19350505050158015610eff573d6000803e3d6000fd5b5050508080610f0d90613172565b915050610d96565b50610f48610f2960c0860160a087016125e1565b8560000135866020013560405180602001604052806000815250610a92565b610f7b610f5b60c0860160a087016125e1565b8686600001358760200135604051806020016040528060008152506110b9565b5050903592915050565b610faf7f65d7a28e3265b37a6474929f336521b332c1681b933f6cb9f3376673440d862a33611048565b6110215760405162461bcd60e51b815260206004820152603960248201527f455243313135355072657365744d696e7465725061757365723a206d7573742060448201527f686176652070617573657220726f6c6520746f2070617573650000000000000060648201526084016105dd565b6108ec6119ee565b60008281526001602052604081206110419083611a69565b9392505050565b6000918252602082815260408084206001600160a01b0393909316845291905290205460ff1690565b610844338383611a75565b600081815260016020526040812061060b90611b56565b6000828152602081905260409020600101546110af813361155a565b6107c583836115e0565b6001600160a01b0385163314806110d557506110d58533610507565b6110f15760405162461bcd60e51b81526004016105dd90612da0565b6107988585858585611b60565b6001600160a01b03831633148061111a575061111a8333610507565b6111365760405162461bcd60e51b81526004016105dd90612da0565b6107c5838383611c81565b61114b8282611048565b610844576000828152602081815260408083206001600160a01b03851684529091529020805460ff191660011790556111813390565b6001600160a01b0316816001600160a01b0316837f2f8788117e7eff1d82e926ec794901d17c78024a50270940304540a733656f0d60405160405180910390a45050565b6000611041836001600160a01b038416611d86565b60006001600160e01b03198216636cdb3d1360e11b148061120b57506001600160e01b031982166303a24d0760e21b145b8061060b575061060b82611dd5565b6001600160a01b0384166112405760405162461bcd60e51b81526004016105dd90612f60565b81518351146112615760405162461bcd60e51b81526004016105dd90612f18565b3361127181600087878787611dfa565b60005b84518110156113295783818151811061129d57634e487b7160e01b600052603260045260246000fd5b6020026020010151600260008784815181106112c957634e487b7160e01b600052603260045260246000fd5b602002602001015181526020019081526020016000206000886001600160a01b03166001600160a01b0316815260200190815260200160002060008282546113119190613012565b9091555081905061132181613172565b915050611274565b50846001600160a01b031660006001600160a01b0316826001600160a01b03167f4a39dc06d4c0dbc64b70af90fd698a233a518aa5d07e595d983b8c0526c8f7fb878760405161137a929190612cd3565b60405180910390a461079881600087878787611e08565b81518351146113b25760405162461bcd60e51b81526004016105dd90612f18565b6001600160a01b0384166113d85760405162461bcd60e51b81526004016105dd90612de9565b336113e7818787878787611dfa565b60005b84518110156114ec57600085828151811061141557634e487b7160e01b600052603260045260246000fd5b60200260200101519050600085838151811061144157634e487b7160e01b600052603260045260246000fd5b60209081029190910181015160008481526002835260408082206001600160a01b038e1683529093529190912054909150818110156114925760405162461bcd60e51b81526004016105dd90612ece565b60008381526002602090815260408083206001600160a01b038e8116855292528083208585039055908b168252812080548492906114d1908490613012565b92505081905550505050806114e590613172565b90506113ea565b50846001600160a01b0316866001600160a01b0316826001600160a01b03167f4a39dc06d4c0dbc64b70af90fd698a233a518aa5d07e595d983b8c0526c8f7fb878760405161153c929190612cd3565b60405180910390a4611552818787878787611e08565b505050505050565b6115648282611048565b6108445761157c816001600160a01b03166014611f73565b611587836020611f73565b604051602001611598929190612b4a565b60408051601f198184030181529082905262461bcd60e51b82526105dd91600401612d01565b6115c88282611141565b60008281526001602052604090206107c590826111c5565b6115ea8282612154565b60008281526001602052604090206107c590826121b9565b60055460ff1661164b5760405162461bcd60e51b815260206004820152601460248201527314185d5cd8589b194e881b9bdd081c185d5cd95960621b60448201526064016105dd565b6005805460ff191690557f5db9ee0a495bf2e6ff9c91a7834c1ba4fdd244a5e8aa4e537bd38aeae4b073aa335b6040516001600160a01b03909116815260200160405180910390a1565b6001600160a01b0383166116bb5760405162461bcd60e51b81526004016105dd90612e2e565b80518251146116dc5760405162461bcd60e51b81526004016105dd90612f18565b60003390506116ff81856000868660405180602001604052806000815250611dfa565b60005b83518110156117e357600084828151811061172d57634e487b7160e01b600052603260045260246000fd5b60200260200101519050600084838151811061175957634e487b7160e01b600052603260045260246000fd5b60209081029190910181015160008481526002835260408082206001600160a01b038c1683529093529190912054909150818110156117aa5760405162461bcd60e51b81526004016105dd90612d5c565b60009283526002602090815260408085206001600160a01b038b16865290915290922091039055806117db81613172565b915050611702565b5060006001600160a01b0316846001600160a01b0316826001600160a01b03167f4a39dc06d4c0dbc64b70af90fd698a233a518aa5d07e595d983b8c0526c8f7fb8686604051611834929190612cd3565b60405180910390a450505050565b6001600160a01b0384166118685760405162461bcd60e51b81526004016105dd90612f60565b3361188881600087611879886121ce565b611882886121ce565b87611dfa565b60008481526002602090815260408083206001600160a01b0389168452909152812080548592906118ba908490613012565b909155505060408051858152602081018590526001600160a01b0380881692600092918516917fc3d58168c5ae7397731d063d5bbf3d657854427343f4c083240f7aacaa2d0f62910160405180910390a461079881600087878787612227565b600081815260076020908152604080832080548251818502810185019093528083528493849084015b8282101561198c57600084815260209081902060408051808201909152908401546001600160a01b0381168252600160a01b900460ff1681830152825260019092019101611943565b505050509050600080600090505b8251811015610a47578281815181106119c357634e487b7160e01b600052603260045260246000fd5b602002602001015160200151826119da919061302a565b9150806119e681613172565b91505061199a565b60055460ff1615611a345760405162461bcd60e51b815260206004820152601060248201526f14185d5cd8589b194e881c185d5cd95960821b60448201526064016105dd565b6005805460ff191660011790557f62e78cea01bee320cd4e420270b5ea74000d11b0c9f74754ebdbfc544b05a2586116783390565b600061104183836122f1565b816001600160a01b0316836001600160a01b03161415611ae95760405162461bcd60e51b815260206004820152602960248201527f455243313135353a2073657474696e6720617070726f76616c20737461747573604482015268103337b91039b2b63360b91b60648201526084016105dd565b6001600160a01b03838116600081815260036020908152604080832094871680845294825291829020805460ff191686151590811790915591519182527f17307eab39ab6107e8899845ad3d59bd9653f200f220920489ca2b5937696c31910160405180910390a3505050565b600061060b825490565b6001600160a01b038416611b865760405162461bcd60e51b81526004016105dd90612de9565b33611b96818787611879886121ce565b60008481526002602090815260408083206001600160a01b038a16845290915290205483811015611bd95760405162461bcd60e51b81526004016105dd90612ece565b60008581526002602090815260408083206001600160a01b038b8116855292528083208785039055908816825281208054869290611c18908490613012565b909155505060408051868152602081018690526001600160a01b03808916928a821692918616917fc3d58168c5ae7397731d063d5bbf3d657854427343f4c083240f7aacaa2d0f62910160405180910390a4611c78828888888888612227565b50505050505050565b6001600160a01b038316611ca75760405162461bcd60e51b81526004016105dd90612e2e565b33611cd681856000611cb8876121ce565b611cc1876121ce565b60405180602001604052806000815250611dfa565b60008381526002602090815260408083206001600160a01b038816845290915290205482811015611d195760405162461bcd60e51b81526004016105dd90612d5c565b60008481526002602090815260408083206001600160a01b03898116808652918452828520888703905582518981529384018890529092908616917fc3d58168c5ae7397731d063d5bbf3d657854427343f4c083240f7aacaa2d0f62910160405180910390a45050505050565b6000818152600183016020526040812054611dcd5750815460018181018455600084815260208082209093018490558454848252828601909352604090209190915561060b565b50600061060b565b60006001600160e01b03198216635a05180f60e01b148061060b575061060b82612329565b61155286868686868661235e565b6001600160a01b0384163b156115525760405163bc197c8160e01b81526001600160a01b0385169063bc197c8190611e4c9089908990889088908890600401612bbf565b602060405180830381600087803b158015611e6657600080fd5b505af1925050508015611e96575060408051601f3d908101601f19168201909252611e9391810190612aa7565b60015b611f4357611ea26131b9565b806308c379a01415611edc5750611eb76131d1565b80611ec25750611ede565b8060405162461bcd60e51b81526004016105dd9190612d01565b505b60405162461bcd60e51b815260206004820152603460248201527f455243313135353a207472616e7366657220746f206e6f6e20455243313135356044820152732932b1b2b4bb32b91034b6b83632b6b2b73a32b960611b60648201526084016105dd565b6001600160e01b0319811663bc197c8160e01b14611c785760405162461bcd60e51b81526004016105dd90612d14565b60606000611f8283600261306f565b611f8d906002613012565b6001600160401b03811115611fb257634e487b7160e01b600052604160045260246000fd5b6040519080825280601f01601f191660200182016040528015611fdc576020820181803683370190505b509050600360fc1b8160008151811061200557634e487b7160e01b600052603260045260246000fd5b60200101906001600160f81b031916908160001a905350600f60fb1b8160018151811061204257634e487b7160e01b600052603260045260246000fd5b60200101906001600160f81b031916908160001a905350600061206684600261306f565b612071906001613012565b90505b6001811115612105576f181899199a1a9b1b9c1cb0b131b232b360811b85600f16601081106120b357634e487b7160e01b600052603260045260246000fd5b1a60f81b8282815181106120d757634e487b7160e01b600052603260045260246000fd5b60200101906001600160f81b031916908160001a90535060049490941c936120fe816130f4565b9050612074565b5083156110415760405162461bcd60e51b815260206004820181905260248201527f537472696e67733a20686578206c656e67746820696e73756666696369656e7460448201526064016105dd565b61215e8282611048565b15610844576000828152602081815260408083206001600160a01b0385168085529252808320805460ff1916905551339285917ff6391f5c32d9c69d2a47ea670b442974b53935d1edc7fd64eb21e047a839171b9190a45050565b6000611041836001600160a01b0384166123c6565b6040805160018082528183019092526060916000919060208083019080368337019050509050828160008151811061221657634e487b7160e01b600052603260045260246000fd5b602090810291909101015292915050565b6001600160a01b0384163b156115525760405163f23a6e6160e01b81526001600160a01b0385169063f23a6e619061226b9089908990889088908890600401612c1d565b602060405180830381600087803b15801561228557600080fd5b505af19250505080156122b5575060408051601f3d908101601f191682019092526122b291810190612aa7565b60015b6122c157611ea26131b9565b6001600160e01b0319811663f23a6e6160e01b14611c785760405162461bcd60e51b81526004016105dd90612d14565b600082600001828154811061231657634e487b7160e01b600052603260045260246000fd5b9060005260206000200154905092915050565b60006001600160e01b03198216637965db0b60e01b148061060b57506301ffc9a760e01b6001600160e01b031983161461060b565b60055460ff16156115525760405162461bcd60e51b815260206004820152602c60248201527f455243313135355061757361626c653a20746f6b656e207472616e736665722060448201526b1dda1a5b19481c185d5cd95960a21b60648201526084016105dd565b600081815260018301602052604081205480156124d95760006123ea60018361308e565b85549091506000906123fe9060019061308e565b905081811461247f57600086600001828154811061242c57634e487b7160e01b600052603260045260246000fd5b906000526020600020015490508087600001848154811061245d57634e487b7160e01b600052603260045260246000fd5b6000918252602080832090910192909255918252600188019052604090208390555b855486908061249e57634e487b7160e01b600052603160045260246000fd5b60019003818190600052602060002001600090559055856001016000868152602001908152602001600020600090556001935050505061060b565b600091505061060b565b80356001600160a01b03811681146124fa57600080fd5b919050565b600082601f83011261250f578081fd5b8135602061251c82612fef565b6040516125298282613146565b8381528281019150858301600585901b87018401881015612548578586fd5b855b858110156125665781358452928401929084019060010161254a565b5090979650505050505050565b600082601f830112612583578081fd5b81356001600160401b0381111561259c5761259c6131a3565b6040516125b3601f8301601f191660200182613146565b8181528460208386010111156125c7578283fd5b816020850160208301379081016020019190915292915050565b6000602082840312156125f2578081fd5b611041826124e3565b6000806040838503121561260d578081fd5b612616836124e3565b9150612624602084016124e3565b90509250929050565b600080600080600060a08688031215612644578081fd5b61264d866124e3565b945061265b602087016124e3565b935060408601356001600160401b0380821115612676578283fd5b61268289838a016124ff565b94506060880135915080821115612697578283fd5b6126a389838a016124ff565b935060808801359150808211156126b8578283fd5b506126c588828901612573565b9150509295509295909350565b600080600080600060a086880312156126e9578081fd5b6126f2866124e3565b9450612700602087016124e3565b9350604086013592506060860135915060808601356001600160401b03811115612728578182fd5b6126c588828901612573565b600080600060608486031215612748578283fd5b612751846124e3565b925060208401356001600160401b038082111561276c578384fd5b612778878388016124ff565b9350604086013591508082111561278d578283fd5b5061279a868287016124ff565b9150509250925092565b600080600080608085870312156127b9578384fd5b6127c2856124e3565b935060208501356001600160401b03808211156127dd578485fd5b6127e9888389016124ff565b945060408701359150808211156127fe578384fd5b61280a888389016124ff565b9350606087013591508082111561281f578283fd5b5061282c87828801612573565b91505092959194509250565b6000806040838503121561284a578182fd5b612853836124e3565b915060208301358015158114612867578182fd5b809150509250929050565b60008060408385031215612884578182fd5b61288d836124e3565b915060208301356001600160401b038111156128a7578182fd5b83016101608186031215612867578182fd5b600080604083850312156128cb578182fd5b6128d4836124e3565b946020939093013593505050565b6000806000606084860312156128f6578081fd5b6128ff846124e3565b95602085013595506040909401359392505050565b60008060008060808587031215612929578182fd5b612932856124e3565b9350602085013592506040850135915060608501356001600160401b0381111561295a578182fd5b61282c87828801612573565b60008060408385031215612978578182fd5b82356001600160401b038082111561298e578384fd5b818501915085601f8301126129a1578384fd5b813560206129ae82612fef565b6040516129bb8282613146565b8381528281019150858301600585901b870184018b10156129da578889fd5b8896505b84871015612a03576129ef816124e3565b8352600196909601959183019183016129de565b5096505086013592505080821115612a19578283fd5b50612a26858286016124ff565b9150509250929050565b600060208284031215612a41578081fd5b5035919050565b60008060408385031215612a5a578182fd5b82359150612624602084016124e3565b60008060408385031215612a7c578182fd5b50508035926020909101359150565b600060208284031215612a9c578081fd5b81356110418161325a565b600060208284031215612ab8578081fd5b81516110418161325a565b600060208284031215612ad4578081fd5b813560ff81168114611041578182fd5b6000815180845260208085019450808401835b83811015612b1357815187529582019590820190600101612af7565b509495945050505050565b60008151808452612b368160208601602086016130c8565b601f01601f19169290920160200192915050565b7f416363657373436f6e74726f6c3a206163636f756e7420000000000000000000815260008351612b828160178501602088016130c8565b7001034b99036b4b9b9b4b733903937b6329607d1b6017918401918201528351612bb38160288401602088016130c8565b01602801949350505050565b6001600160a01b0386811682528516602082015260a060408201819052600090612beb90830186612ae4565b8281036060840152612bfd8186612ae4565b90508281036080840152612c118185612b1e565b98975050505050505050565b6001600160a01b03868116825285166020820152604081018490526060810183905260a060808201819052600090612c5790830184612b1e565b979650505050505050565b60006020808301818452808554808352604092508286019150868552838520855b82811015612cb35781546001600160a01b038116855260a01c60ff16868501529284019260019182019101612c83565b5091979650505050505050565b6020815260006110416020830184612ae4565b604081526000612ce66040830185612ae4565b8281036020840152612cf88185612ae4565b95945050505050565b6020815260006110416020830184612b1e565b60208082526028908201527f455243313135353a204552433131353552656365697665722072656a656374656040820152676420746f6b656e7360c01b606082015260800190565b60208082526024908201527f455243313135353a206275726e20616d6f756e7420657863656564732062616c604082015263616e636560e01b606082015260800190565b60208082526029908201527f455243313135353a2063616c6c6572206973206e6f74206f776e6572206e6f7260408201526808185c1c1c9bdd995960ba1b606082015260800190565b60208082526025908201527f455243313135353a207472616e7366657220746f20746865207a65726f206164604082015264647265737360d81b606082015260800190565b60208082526023908201527f455243313135353a206275726e2066726f6d20746865207a65726f206164647260408201526265737360e81b606082015260800190565b60208082526038908201527f455243313135355072657365744d696e7465725061757365723a206d7573742060408201527f68617665206d696e74657220726f6c6520746f206d696e740000000000000000606082015260800190565b6020808252602a908201527f455243313135353a20696e73756666696369656e742062616c616e636520666f60408201526939103a3930b739b332b960b11b606082015260800190565b60208082526028908201527f455243313135353a2069647320616e6420616d6f756e7473206c656e677468206040820152670dad2e6dac2e8c6d60c31b606082015260800190565b60208082526021908201527f455243313135353a206d696e7420746f20746865207a65726f206164647265736040820152607360f81b606082015260800190565b6000808335601e19843603018112612fb7578283fd5b8301803591506001600160401b03821115612fd0578283fd5b6020019150600581901b3603821315612fe857600080fd5b9250929050565b60006001600160401b03821115613008576130086131a3565b5060051b60200190565b600082198211156130255761302561318d565b500190565b600060ff821660ff84168060ff038211156130475761304761318d565b019392505050565b60008261306a57634e487b7160e01b81526012600452602481fd5b500490565b60008160001904831182151516156130895761308961318d565b500290565b6000828210156130a0576130a061318d565b500390565b600060ff821660ff8416808210156130bf576130bf61318d565b90039392505050565b60005b838110156130e35781810151838201526020016130cb565b838111156107025750506000910152565b6000816131035761310361318d565b506000190190565b600181811c9082168061311f57607f821691505b6020821081141561314057634e487b7160e01b600052602260045260246000fd5b50919050565b601f8201601f191681016001600160401b038111828210171561316b5761316b6131a3565b6040525050565b60006000198214156131865761318661318d565b5060010190565b634e487b7160e01b600052601160045260246000fd5b634e487b7160e01b600052604160045260246000fd5b600060033d11156131ce57600481823e5160e01c5b90565b600060443d10156131df5790565b6040516003193d81016004833e81513d6001600160401b03816024840111818411171561320e57505050505090565b82850191508151818111156132265750505050505090565b843d87010160208285010111156132405750505050505090565b61324f60208286010187613146565b509095945050505050565b6001600160e01b03198116811461327057600080fd5b5056fea264697066735822122040592139cd74149138f57b014c634c14b071cc4d1d880873625a6165e0da320464736f6c6343000804003365d7a28e3265b37a6474929f336521b332c1681b933f6cb9f3376673440d862a9f2df0fed2c77648de5860a4cc508cd0818c85b8b8a1ab4ceeef8d981c8956a6",
  "linkReferences": {},
  "deployedLinkReferences": {}
}